:020000040800F2
:1000000000000220B1240008952200089722000871
:10001000992200089B2200089D2200080000000091
:100020000000000000000000000000009F22000807
:10003000A122000800000000A3220008A522000859
:1000400001250008012500080125000801250008F8
:1000500001250008012500080125000801250008E8
:10006000012500080125000801250008AD2200082F
:10007000BD220008CD220008012500080125000846
:10008000DD22000801250008ED22000801250008F6
:1000900001250008012500080125000801250008A8
:1000A0000125000801250008012500080125000898
:1000B0000125000801250008012500080125000888
:1000C0000125000801250008012500080125000878
:1000D000FD2200080125000801250008012500086F
:1000E0000125000801250008000000000125000886
:1000F0000125000801250008012500080125000848
:1001000001250008012500080D230008012500082D
:100110000125000801250008012500080125000827
:100120000125000801250008012500080125000817
:100130000125000801250008012500080125000807
:1001400000000000000000000000000000000000AF
:1001500001250008012500080125000801250008E7
:1001600001250008012500080125000801250008D7
:1001700001250008252300080125000801250008A5
:1001800001250008012500080125000801250008B7
:1001900001250008012500080125000801250008A7
:1001A0000125000801250008012500080125000897
:1001B0000125000801250008012500080125000887
:1001C0000125000801250008012500080125000877
:1001D0000125000801250008012500080125000867
:1001E0000125000801250008012500080125000857
:1001F0000125000801250008012500080125000847
:100200000125000801250008012500080125000836
:100210000125000801250008012500080125000826
:100220000125000801250008012500080000000044
:100230000125000801250008000000003523000802
:1002400001250008452300080125000801250008B4
:1002500001250008012500080125000801250008E6
:1002600001250008012500080125000801250008D6
:1002700001250008012500080125000800000000F4
:1002800001250008012500080125000800000000E4
:08029000000000000125000838
:1002C00080F0004002E000BF81F0004142001FBF0B
:1002D0005FEA410392EA030F7FEA226C7FEA236C14
:1002E0006AD04FEA1262D2EB1363C1BFD218414009
:1002F00048404140B8BF5B42192B88BF704710F09F
:10030000004F40F4000020F07F4018BF404211F041
:10031000004F41F4000121F07F4118BF494292EAA9
:10032000030F3FD0A2F1010241FA03FC10EB0C00D5
:10033000C3F1200301FA03F100F0004302D5494262
:1003400060EB4000B0F5000F13D3B0F1807F06D30F
:1003500040084FEA310102F10102FE2A51D2B1F107
:10036000004F40EBC25008BF20F0010040EA0300FC
:100370007047490040EB0000013A28BFB0F5000F7C
:10038000EDD2B0FA80FCACF1080CB2EB0C0200FA32
:100390000CF0AABF00EBC25052421843BCBFD04081
:1003A0001843704792F0000F81F4000106BF80F4FB
:1003B00000000132013BB5E74FEA41037FEA226CBE
:1003C00018BF7FEA236C21D092EA030F04D092F089
:1003D000000F08BF0846704790EA010F1CBF0020BD
:1003E000704712F07F4F04D1400028BF40F000401A
:1003F000704712F100723CBF00F50000704700F03A
:10040000004343F0FE4040F4000070477FEA226260
:1004100016BF08467FEA23630146420206BF5FEA31
:10042000412390EA010F40F4800070474FF0000331
:1004300004E000BF10F0004348BF40425FEA000CF8
:1004400008BF704743F0964301464FF000001CE0A0
:1004500050EA010208BF70474FF000030AE000BFF6
:1004600050EA010208BF704711F0004302D5404234
:1004700061EB41015FEA010C02BF844601460020A6
:1004800043F0B64308BFA3F18053A3F50003BCFAC1
:100490008CF2083AA3EBC25310DB01FA02FC63446E
:1004A00000FA02FCC2F12002BCF1004F20FA02F275
:1004B00043EB020008BF20F00100704702F1200268
:1004C00001FA02FCC2F1200250EA4C0021FA02F2C9
:1004D00043EB020008BF20EADC7070474FF0FF0CCE
:1004E0001CEAD0521EBF1CEAD15392EA0C0F93EAC9
:1004F0000C0F6FD01A4480EA010C400218BF5FEA6B
:1005000041211ED04FF0006343EA501043EA5111DD
:10051000A0FB01310CF00040B1F5000F3EBF4900D7
:1005200041EAD3715B0040EA010062F17F02FD2ADB
:100530001DD8B3F1004F40EBC25008BF20F00100BE
:10054000704790F0000F0CF0004C08BF49024CEAD5
:10055000502040EA51207F3AC2BFD2F1FF0340EA67
:10056000C250704740F400004FF00003013A5DDCD8
:1005700012F1190FDCBF00F000407047C2F1000219
:10058000410021FA02F1C2F1200200FA02FC5FEA06
:10059000310040F1000053EA4C0308BF20EADC7050
:1005A000704792F0000F00F0004C02BF400010F4C2
:1005B000000F013AF9D040EA0C0093F0000F01F06F
:1005C000004C02BF490011F4000F013BF9D041EA91
:1005D0000C018FE70CEAD15392EA0C0F18BF93EA93
:1005E0000C0F0AD030F0004C18BF31F0004CD8D1BD
:1005F00080EA010000F00040704790F0000F17BF44
:1006000090F0004F084691F0000F91F0004F14D089
:1006100092EA0C0F01D142020FD193EA0C0F03D1E1
:100620004B0218BF084608D180EA010000F00040E4
:1006300040F0FE4040F40000704740F0FE4040F4BF
:10064000400070474FF0FF0C1CEAD0521EBF1CEA5E
:10065000D15392EA0C0F93EA0C0F69D0A2EB03027C
:1006600080EA010C49024FEA402037D04FF0805316
:1006700043EA111143EA10130CF000408B4238BFDB
:100680005B0042F17D024FF4000C8B4224BF5B1AE9
:1006900040EA0C00B3EB510F24BFA3EB510340EA37
:1006A0005C00B3EB910F24BFA3EB910340EA9C00E5
:1006B000B3EBD10F24BFA3EBD10340EADC001B0155
:1006C00018BF5FEA1C1CE0D1FD2A3FF650AF8B42F9
:1006D00040EBC25008BF20F0010070470CF0004C06
:1006E0004CEA50207F32C2BFD2F1FF0340EAC25031
:1006F000704740F400004FF00003013A37E792F0F2
:10070000000F00F0004C02BF400010F4000F013A4F
:10071000F9D040EA0C0093F0000F01F0004C02BF4A
:10072000490011F4000F013BF9D041EA0C0195E7B3
:100730000CEAD15392EA0C0F08D142027FF47DAF4C
:1007400093EA0C0F7FF470AF084676E793EA0C0F3C
:1007500004D14B023FF44CAF08466EE730F0004C3A
:1007600018BF31F0004CCAD130F000427FF45CAFCA
:1007700031F000437FF43CAF5FE700BF42000ED290
:10078000B2F1FE4F0BD34FF09E03B3EB126209D4CC
:100790004FEA002343F0004323FA02F070474FF082
:1007A0000000704712F1610F01D1420202D14FF0F7
:1007B000FF3070474FF00000704700BF53B94AB98F
:1007C000002908BF00281CBF4FF0FF314FF0FF3059
:1007D00000F0E2B8ADF1080C6DE904CE0CF030FA8F
:1007E000DDF804E0DDE9022304B0704700F13401D4
:1007F00091E838009C46A6464CF8045D90E8FF0F4F
:10080000E54600BD90EC210B704700BF80EC210B4A
:10081000704700BF90EC200B704700BF80EC200BAE
:10082000704700BFD0EC200B704700BFC0EC200B1E
:10083000704700BFF0EC0201F0EC0211F0EC022175
:10084000F0EC0231F0EC0241F0EC0251F0EC02610C
:10085000F0EC0271F0EC0281F0EC0291F0EC02A1FC
:10086000F0EC02B1F0EC02C1F0EC02D1F0EC02E1EC
:10087000F0EC02F1704700BFE0EC0201E0EC021185
:10088000E0EC0221E0EC0231E0EC0241E0EC02514C
:10089000E0EC0261E0EC0271E0EC0281E0EC02913C
:1008A000E0EC02A1E0EC02B1E0EC02C1E0EC02D12C
:1008B000E0EC02E1E0EC02F1704700BFB0FC018126
:1008C000B0FC0191B0FC01A1B0FC01B1704700BFC8
:1008D000A0FC0181A0FC0191A0FC01A1A0FC01B140
:1008E000704700BFEC4600B52DE900502DE9FF1F11
:1008F0004FF000032DE90C0001A90CF053FCDDF8CA
:1009000040E012B0704700BFEC4600B52DE9005042
:100910002DE9FF1F4FF000032DE90C0001A90CF099
:100920007DFCDDF840E012B0704700BFEC4600B53A
:100930002DE900502DE9FF1F4FF000032DE90C00B9
:1009400001A90CF08BFCDDF840E012B0704700BF4D
:10095000EC4600B52DE900502DE9FF1F4FF00003D4
:100960002DE90C0001AB0CF051FCDDF840E012B0B9
:10097000704700BFEC4600B52DE900502DE9FF1F80
:100980004FF000032DE90C0001AA0CF0BFFCDDF8CC
:1009900040E012B0704700BF704700BF844641EA94
:1009A000000313F003036DD1403A41D351F8043BE7
:1009B00040F8043B51F8043B40F8043B51F8043B39
:1009C00040F8043B51F8043B40F8043B51F8043B29
:1009D00040F8043B51F8043B40F8043B51F8043B19
:1009E00040F8043B51F8043B40F8043B51F8043B09
:1009F00040F8043B51F8043B40F8043B51F8043BF9
:100A000040F8043B51F8043B40F8043B51F8043BE8
:100A100040F8043B51F8043B40F8043B51F8043BD8
:100A200040F8043B51F8043B40F8043B403ABDD247
:100A3000303211D351F8043B40F8043B51F8043BE9
:100A400040F8043B51F8043B40F8043B51F8043BA8
:100A500040F8043B103AEDD20C3205D351F8043B78
:100A600040F8043B043AF9D2043208D0D2071CBF44
:100A700011F8013B00F8013B01D30B88038060466D
:100A8000704700BF082A13D38B078DD010F00303E3
:100A90008AD0C3F10403D21ADB071CBF11F8013B53
:100AA00000F8013B80D331F8023B20F8023B7BE7A2
:100AB000043AD9D3013A11F8013B00F8013BF9D2CD
:100AC0000B7803704B7843708B7883706046704767
:100AD0000000000000000000000000000000000016
:100AE0000000000000000000000000000000000006
:100AF00000000000000000000000000000000000F6
:100B000030B490F800F020F007016FF0000C10F006
:100B1000070491F820F040F048804FF000046FF097
:100B20000700D1E9002391F840F000F1080082FAB3
:100B30004CF2A4FA8CF283FA4CF3A2FA8CF34BBB7E
:100B4000D1E9022382FA4CF200F10800A4FA8CF2F7
:100B500083FA4CF3A2FA8CF3E3B9D1E9042382FAC5
:100B60004CF200F10800A4FA8CF283FA4CF3A2FADA
:100B70008CF37BB9D1E9062301F1200182FA4CF212
:100B800000F10800A4FA8CF283FA4CF3A2FA8CF379
:100B9000002BC6D0002A04BF04301A4612BAB2FA9B
:100BA00082F200EBD20030BC7047D1E9002304F0A0
:100BB0000305C4F100004FEAC50514F0040F91F8D5
:100BC00040F00CFA05F562EA05021CBF63EA050372
:100BD00062464FF00004AAE7000000000000000099
:100BE00001F0FF01102A2BDB10F0070F08D010F8DE
:100BF000013B013A8B422DD010F0070F42B3F6D1E2
:100C0000F0B441EA012141EA014122F007047FF0FA
:100C100000070023F0E80256083C85EA010586EA51
:100C2000010685FA47F5A3FA87F586FA47F6A5FA8D
:100C300087F68EB9EED1F0BC01F0FF0102F0070299
:100C400032B110F8013B013A83EA010313B1F8D144
:100C50000020704701387047002D06BF3546033825
:100C6000073815F0010F07D1013015F4807F02BF5E
:100C7000013015F4C03F0130F0BC0138704700BFAF
:100C800081F0004102E000BF83F0004330B54FEA3D
:100C900041044FEA430594EA050F08BF90EA020FAA
:100CA0001FBF54EA000C55EA020C7FEA645C7FEA3D
:100CB000655C00F0E2804FEA5454D4EB5555B8BF60
:100CC0006D420CDD2C4480EA020281EA030382EAD1
:100CD000000083EA010180EA020281EA0303362D63
:100CE00088BF30BD11F0004F4FEA01314FF4801C36
:100CF0004CEA113102D0404261EB410113F0004F48
:100D00004FEA03334CEA133302D0524263EB4303FE
:100D100094EA050F00F0A780A4F10104D5F1200E9C
:100D20000DDB02FA0EFC22FA05F2801841F10001F7
:100D300003FA0EF2801843FA05F359410EE0A5F1CB
:100D400020050EF1200E012A03FA0EFC28BF4CF0FC
:100D5000020C43FA05F3C01851EBE37101F00045B2
:100D600007D54FF0000EDCF1000C7EEB00006EEBBF
:100D70000101B1F5801F1BD3B1F5001F0CD3490849
:100D80005FEA30004FEA3C0C04F101044FEA4452A0
:100D900012F5800F80F09A80BCF1004F08BF5FEA27
:100DA000500C50F1000041EB045141EA050130BD07
:100DB0005FEA4C0C404141EB0101013C28BFB1F519
:100DC000801FE9D291F0000F04BF01460020B1FA64
:100DD00081F308BF2033A3F10B03B3F120020CDA37
:100DE0000C3208DD02F1140CC2F10C0201FA0CF015
:100DF00021FA02F10CE002F11402D8BFC2F1200C7A
:100E000001FA02F120FA0CFCDCBF41EA0C0190402F
:100E1000E41AA2BF01EB0451294330BD6FEA040478
:100E20001F3C1CDA0C340EDC04F11404C4F1200263
:100E300020FA04F001FA02F340EA030021FA04F375
:100E400045EA030130BDC4F10C04C4F1200220FACC
:100E500002F001FA04F340EA0300294630BD21FA0A
:100E600004F0294630BD94F0000F83F4801306BFD0
:100E700081F480110134013D4EE77FEA645C18BFC4
:100E80007FEA655C29D094EA050F08BF90EA020F5B
:100E900005D054EA000C04BF1946104630BD91EA53
:100EA000030F1EBF0021002030BD5FEA545C05D156
:100EB0004000494128BF41F0004130BD14F5800495
:100EC0003CBF01F5801130BD01F0004545F0FE4109
:100ED00041F470014FF0000030BD7FEA645C1ABF3E
:100EE000194610467FEA655C1CBF0B46024650EA75
:100EF000013406BF52EA033591EA030F41F40021A1
:100F000030BD00BF90F0000F04BF0021704730B526
:100F10004FF4806404F132044FF000054FF00001FB
:100F200050E700BF90F0000F04BF0021704730B5BC
:100F30004FF4806404F1320410F0004548BF404291
:100F40004FF000013EE700BF42004FEAE2014FEAE6
:100F500031014FEA02701FBF12F07F4393F07F4FC1
:100F600081F06051704732F07F4208BF704793F0C4
:100F70007F4F04BF41F40021704730B54FF46074D7
:100F800001F0004521F000411CE700BF50EA0102DA
:100F900008BF704730B54FF000050AE050EA010283
:100FA00008BF704730B511F0004502D5404261EBF3
:100FB00041014FF4806404F132045FEA915C3FF434
:100FC000D8AE4FF003025FEADC0C18BF03325FEAD1
:100FD000DC0C18BF033202EBDC02C2F1200300FA82
:100FE00003FC20FA02F001FA03FE40EA0E0021FAA7
:100FF00002F11444BDE600BF70B54FF0FF0C4CF495
:10100000E06C1CEA11541DBF1CEA135594EA0C0F46
:1010100095EA0C0F00F0DEF82C4481EA030621EA81
:101020004C5123EA4C5350EA013518BF52EA0335BC
:1010300041F4801143F4801338D0A0FB02CE4FF06E
:101040000005E1FB02E506F00042E0FB03E54FF09E
:101050000006E1FB03569CF0000F18BF4EF0010E96
:10106000A4F1FF04B6F5007F64F5407404D25FEA92
:101070004E0E6D4146EB060642EAC62141EA555145
:101080004FEAC52040EA5E504FEACE2EB4F1FD0C87
:1010900088BFBCF5E06F1ED8BEF1004F08BF5FEA05
:1010A000500E50F1000041EB045170BD06F00046B7
:1010B00046EA010140EA020081EA0301B4EB5C0464
:1010C000C2BFD4EB0C0541EA045170BD41F480115C
:1010D0004FF0000E013C00F3AB8014F1360FDEBF81
:1010E000002001F0004170BDC4F10004203C35DA5D
:1010F0000C341BDC04F11404C4F1200500FA05F3E0
:1011000020FA04F001FA05F240EA020001F0004280
:1011100021F0004110EBD37021FA04F642EB0601F6
:101120005EEA430E08BF20EAD37070BDC4F10C0420
:10113000C4F1200500FA04F320FA05F001FA04F2E4
:1011400040EA020001F0004110EBD37041F10001D0
:101150005EEA430E08BF20EAD37070BDC4F12005DB
:1011600000FA05F24EEA020E20FA04F301FA05F243
:1011700043EA020321FA04F001F0004121FA04F2EB
:1011800020EA020000EBD3705EEA430E08BF20EABB
:10119000D37070BD94F0000F0FD101F000464000F5
:1011A00041EB010111F4801F08BF013CF7D041EA77
:1011B000060195F0000F18BF704703F0004652007B
:1011C00043EB030313F4801F08BF013DF7D043EA4C
:1011D0000603704794EA0C0F0CEA135518BF95EA02
:1011E0000C0F0CD050EA410618BF52EA4306D1D189
:1011F00081EA030101F000414FF0000070BD50EAA8
:10120000410606BF1046194652EA430619D094EA31
:101210000C0F02D150EA013613D195EA0C0F05D11B
:1012200052EA03361CBF104619460AD181EA03016F
:1012300001F0004141F0FE4141F470014FF0000027
:1012400070BD41F0FE4141F4780170BD70B54FF0C2
:10125000FF0C4CF4E06C1CEA11541DBF1CEA135542
:1012600094EA0C0F95EA0C0F00F0A7F8A4EB050424
:1012700081EA030E52EA03354FEA013100F088801B
:101280004FEA03334FF0805545EA131343EA1263E4
:101290004FEA022245EA111545EA10654FEA002699
:1012A0000EF000419D4208BF964244F1FD0404F552
:1012B000407402D25B084FEA3202B61A65EB0305AE
:1012C0005B084FEA32024FF480104FF4002CB6EB6B
:1012D000020E75EB030E22BFB61A754640EA0C00EB
:1012E0005B084FEA3202B6EB020E75EB030E22BF2B
:1012F000B61A754640EA5C005B084FEA3202B6EB6C
:10130000020E75EB030E22BFB61A754640EA9C002A
:101310005B084FEA3202B6EB020E75EB030E22BFFA
:10132000B61A754640EADC0055EA060E18D04FEAB8
:10133000051545EA16754FEA06164FEAC30343EA58
:1013400052734FEAC2025FEA1C1CC0D111F4801F25
:101350000BD141EA00014FF000004FF0004CB6E71E
:1013600011F4801F04BF01430020B4F1FD0C88BFBD
:10137000BCF5E06F3FF6AFAEB5EB030C04BFB6EBC8
:10138000020C5FEA500C50F1000041EB045170BDBB
:101390000EF0004E4EEA113114EB5C04C2BFD4EBE8
:1013A0000C0541EA045170BD41F480114FF0000E6C
:1013B000013C90E645EA060E8DE60CEA135594EAE8
:1013C0000C0F08BF95EA0C0F3FF43BAF94EA0C0FEB
:1013D0000AD150EA01347FF434AF95EA0C0F7FF460
:1013E00025AF104619462CE795EA0C0F06D152EAB4
:1013F00003353FF4FDAE1046194622E750EA410698
:1014000018BF52EA43067FF4C5AE50EA41047FF4A8
:101410000DAF52EA43057FF4EBAE12E74FF0FF3C0D
:1014200006E000BF4FF0010C02E000BF4FF0010CDE
:101430004DF804CD4FEA410C7FEA6C5C4FEA430C57
:1014400018BF7FEA6C5C1BD001B050EA410C0CBFA6
:1014500052EA430C91EA030F02BF90EA020F002008
:10146000704710F1000F91EA030F58BF994208BF6F
:1014700090422CBFD8176FEAE37040F0010070472C
:101480004FEA410C7FEA6C5C02D150EA013C07D183
:101490004FEA430C7FEA6C5CD6D152EA033CD3D0CE
:1014A0005DF8040B704700BF8446104662468C46C8
:1014B0001946634600E000BF01B5FFF7B7FF0028FB
:1014C00048BF10F1000F01BD4DF808EDFFF7F4FF24
:1014D0000CBF012000205DF808FB00BF4DF808EDAF
:1014E000FFF7EAFF34BF012000205DF808FB00BFD2
:1014F0004DF808EDFFF7E0FF94BF012000205DF8F4
:1015000008FB00BF4DF808EDFFF7CEFF94BF0120A8
:1015100000205DF808FB00BF4DF808EDFFF7C4FFA1
:1015200034BF012000205DF808FB00BF4FEA410CEA
:101530007FEA6C5C02D150EA013C0AD14FEA430CCD
:101540007FEA6C5C02D152EA033C02D14FF000000A
:1015500070474FF0010070474FEA410212F5001248
:1015600015D211D56FF47873B3EB625212D94FEAEA
:10157000C12343F0004343EA505311F0004F23FAD4
:1015800002F018BF404270474FF00000704750EA29
:10159000013005D111F0004008BF6FF000407047E6
:1015A0004FF00000704700BF0348044B834202D055
:1015B000034B03B118477047FC070020FC070020CD
:1015C000000000000548064B1B1AD90F01EBA301D0
:1015D000491002D0034B03B118477047FC070020A5
:1015E000FC0700200000000010B5064C237843B92A
:1015F000FFF7DAFF044B13B10448AFF30080012377
:10160000237010BDFC0700200000000018400108F6
:1016100008B5054B1BB105490548AFF30080BDE88F
:101620000840FFF7CFBF00BF000000000008002007
:1016300018400108F0B585B000240094019402948C
:10164000039402F0BFF801258DF800508DF8014099
:101650004FF01053019312238DF808308DF8094094
:101660008DF80A5003278DF80B708DF80C408DF81B
:101670000D408DF80E508DF80F50684602F0C0F8FE
:101680008DF801504FF0C04301930F268DF808608C
:101690008DF80A408DF80E40684602F0B1F802233A
:1016A0008DF801304FF04053019310238DF808302E
:1016B0008DF80E508DF80F40684602F0A1F88DF8B5
:1016C0000170104B0193684602F09AF804238DF8DC
:1016D00001300D4B01930E238DF80830684602F05F
:1016E0008FF805238DF801304FF0605301938DF88A
:1016F0000860684602F084F8062002F071F805B030
:10170000F0BD00BF0000023000000430F0B58FB023
:10171000002409940A940B940C940D94424BD3F832
:10172000E02042F00202C3F8E020D3F8E02002F00B
:1017300002020192019AD3F8E02042F00402C3F8B9
:10174000E020D3F8E02002F004020292029AD3F8DB
:10175000E02042F00102C3F8E020D3F8E02002F0DC
:1017600001020392039AD3F8E02042F48072C3F896
:10177000E020D3F8E02002F480720492049AD3F8B7
:10178000E02042F08002C3F8E020D3F8E02002F02D
:1017900080020592059AD3F8E02042F02002C3F8B7
:1017A000E020D3F8E02002F020020692069AD3F857
:1017B000E02042F04002C3F8E020D3F8E02002F03D
:1017C00040020792079AD3F8E02042F00802C3F8DB
:1017D000E020D3F8E03003F008030893089B134F90
:1017E00022460221384603F053FB114D22464FF4A6
:1017F0007051284603F04CFB0223099301260A96F8
:101800000B940C9409A9384603F02EFA4FF4705348
:10181000099311230A930B9603230C9309A92846D5
:1018200003F022FA0FB0F0BD00440258001802582D
:10183000000C025800B583B00B4BD3F8E02042F403
:101840000012C3F8E020D3F8E03003F40013019352
:10185000019B00221146812001F08CFF812001F0C4
:1018600099FF03B05DF804FB0044025800B583B053
:10187000174BD3F8D82042F00102C3F8D820D3F890
:10188000D83003F001030193019B002211460B2085
:1018900001F070FF0B2001F07DFF002211460C20AB
:1018A00001F068FF0C2001F075FF002211460D20A9
:1018B00001F060FF0D2001F06DFF002211461020A5
:1018C00001F058FF102001F065FF03B05DF804FB44
:1018D0000044025810B514464FF6FF7392B2024806
:1018E00008F0A2F8204610BD0809002072B6FEE7F5
:1018F00000B589B0002301930293039304930593E9
:10190000069307932248234A026083600122C26043
:1019100004210161037542750221816103774362ED
:1019200083620321C1624FF480510163436380F8F5
:1019300038201021C163402101644364826401F0B6
:1019400099FCF8B9144B01930623029300230393E7
:1019500040F2FF7204920422059206938DF81D3026
:101960000DEB02010A4801F04DF868B90B4B0193E9
:101970000C23029301A9064801F044F830B909B0DC
:101980005DF804FBFFF7B2FFFFF7B0FFFFF7AEFF14
:10199000600C00200060025802003004040060085F
:1019A00008B51548154B03604FF4800343604FF4AE
:1019B000003383600723C3600023036143614FF05A
:1019C000806282614FF00052C261036243628362AF
:1019D000C3624FF0804242638363C3630364436422
:1019E0008364C36403654365836506F0B5FC00B991
:1019F00008BDFFF77BFF00BFE80A00200038004069
:101A000000B589B0002304930593069307930193CF
:101A1000029303931348144A026040F2DF124260BB
:101A200083607C22C2600361836107F0FBFA90B996
:101A30004FF48053049304A90A4807F02FFB60B9C0
:101A400000230193039301A9064807F0C3FB30B9B3
:101A500009B05DF804FBFFF749FFFFF747FFFFF709
:101A600045FF00BF9C090020000C004008B5154848
:101A7000154B03604FF4E133436000238360C36080
:101A800003610C2242618361C3610362436283622A
:101A900008F097F870B900210A4808F00AF958B917
:101AA0000021084808F02AF940B9064808F0E2F891
:101AB00030B908BDFFF71AFFFFF718FFFFF716FF51
:101AC000FFF714FF080900200010014000B58BB09B
:101AD00000230793089309930093019302930393C0
:101AE0000493059306932748274A02604360836066
:101AF0000122C260042101610375427502218161E6
:101B00000377436283620321C1624FF48051016312
:101B1000436380F838201021C1634021016443648D
:101B2000826401F0A7FB28BB0023079307A915488F
:101B300001F026FD00BB154B009306230193002303
:101B4000029340F2FF7203920422049205938DF8EF
:101B5000193069460B4800F055FF78B90C4B0093DB
:101B60000C2301936946074800F04CFF40B90BB0C5
:101B70005DF804FBFFF7BAFEFFF7B8FEFFF7B6FE0D
:101B8000FFF7B4FEC40C0020002002400800900CB7
:101B90001000C01008B51348134B03604FF48003C6
:101BA0004360002383600322C260036143614FF0FE
:101BB00080628261C361036243628362C3624FF0E9
:101BC000804242638363C363036443648364C36486
:101BD00003654365836506F0BFFB00B908BDFFF7E9
:101BE00085FE00BF600A0020003C004000B59FB0A9
:101BF0004C2200210BA80CF0E1F92022002103A8BF
:101C00000CF0DCF9022003F0D3FF002300933A4BE1
:101C1000DA6A22F00102DA62DB6A03F00103009360
:101C2000364B9A6942F440429A619B6903F44043FF
:101C30000093009B314B9B6913F4005FFAD0304B4B
:101C4000D3F8F42042F00202C3F8F420D3F8F430C1
:101C500003F002030193019B00230293274B9A692F
:101C600042F440429A619B6903F440430293224B41
:101C7000DA6A42F00102DA62DB6A03F001030293DE
:101C8000029B1E4B9B6913F4005FFAD021230B9338
:101C90004FF480330C930123119302231493159373
:101CA0000422169250221792189319931A930C2318
:101CB0001B9300231C931D930BA803F0ABFFB0B93B
:101CC0003F230393032304930023059308230693E0
:101CD0004023079308934FF4806209920A930421EA
:101CE00003A804F0FDFB20B91FB05DF804FBFFF76B
:101CF000FDFDFFF7FBFD00BF00040058004802583F
:101D00000044025810B5B0B0C024224600216846F5
:101D10000CF054F94FF401220023CDE900230423F1
:101D20000293122303930323049302230593069340
:101D300007944FF480531893684604F06DFE08B979
:101D400030B010BDFFF7D2FD08B5FFF773FC384B7C
:101D50005B6913F4003F13D1BFF34F8FBFF36F8F55
:101D6000334B0022C3F85022BFF34F8FBFF36F8F66
:101D70005A6942F400325A61BFF34F8FBFF36F8F3D
:101D80002B4B5B6913F4803F27D1294B0022C3F80A
:101D90008420BFF34F8FD3F88040C4F34E3000E06F
:101DA0001846C4F3C90243F6E07303EA401343EA5A
:101DB00082731F49C1F860321346013A002BF2D1F9
:101DC000431E0028ECD1BFF34F8F4B6943F480339F
:101DD0004B61BFF34F8FBFF36F8F00F0BBFBFFF77B
:101DE00005FFFFF78FFFFFF791FCFFF723FDFFF7DC
:101DF0003DFD09F003FFFFF77BFDFFF7D1FDFFF786
:101E0000FFFDFFF733FEFFF761FEFFF7C3FE40F271
:101E1000FF724FF00111074801F058FB40F2FF72CA
:101E20004FF00111044801F051FB0AF09BFBFEE763
:101E300000ED00E0600C0020C40C002082B0074BD5
:101E4000D3F8F42042F00202C3F8F420D3F8F430BF
:101E500003F002030193019B02B070470044025853
:101E600030B58DB0044600230793089309930A9375
:101E70000B930368614A934204D0614A934260D055
:101E80000DB030BD5F4BD3F8D82042F02002C3F82C
:101E9000D820D3F8D82002F020020192019AD3F87A
:101EA000E02042F00402C3F8E020D3F8E02002F082
:101EB00004020292029AD3F8E02042F00102C3F831
:101EC000E020D3F8E03003F001030393039B1023D9
:101ED00007930325089507A94B4802F0C5FE402348
:101EE000079308950025099507A9484802F0BCFE0C
:101EF0004748484B0360092343608560C5604FF441
:101F0000806303614FF4006343614FF400538361C6
:101F10004FF48073C3614FF400330362456201F0F4
:101F2000B1FE58B93A4BE3649C630022114612207B
:101F300001F020FC122001F02DFCA1E7FFF7D6FCF8
:101F4000F0E7304BD3F8E02042F08072C3F8E02095
:101F5000D3F8E02002F080720492049AD3F8E020D3
:101F600042F02002C3F8E020D3F8E02002F0200283
:101F70000592059AD3F8E02042F00402C3F8E0206D
:101F8000D3F8E03003F004030693069B4FF400738C
:101F900007930323089307A91F4802F065FE4FF03B
:101FA0000061084600F030FB1C481D4B0360112304
:101FB000436000238360C3604FF4806303614FF488
:101FC000006343614FF4005383614FF48073C36136
:101FD0004FF40033036201F055FE58B90F4BE36430
:101FE0009C63002211467F2001F0C4FB7F2001F09A
:101FF000D1FB45E7FFF77AFCF0E700BF0020024085
:1020000000600258004402580008025800000258BC
:10201000E80B00208800024000140258700B0020DA
:102020000854025810B58AB000230593069307930D
:102030000893099303683A4A934204D0394A934279
:1020400048D00AB010BD0446374BD3F8E82042F41C
:102050008042C3F8E820D3F8E82002F480420192DD
:10206000019AD3F8E02042F48072C3F8E020D3F85C
:10207000E03003F480730293029B0A23059302234A
:1020800006930523099305A9284802F0EDFD284889
:10209000284B036028234360402383600023C360F0
:1020A0004FF48062026143618361C36103624362F2
:1020B00001F0E8FD58B91E4BA3679C63002211464E
:1020C000242001F057FB242001F064FBB9E7FFF75F
:1020D0000DFCF0E7144BD3F8E82042F40042C3F8BB
:1020E000E820D3F8E82002F400420392039AD3F8E0
:1020F000E02042F00402C3F8E020D3F8E03003F01F
:1021000004030493049B4FF4E053059302230693C6
:102110000623099305A9084802F0A6FD91E700BF30
:1021200000380040003C00400044025800200258A3
:10213000E8090020100002400008025802680F4B16
:102140009A4200D0704700B583B00D4BD3F8E82019
:1021500042F00802C3F8E820D3F8E83003F008039F
:102160000193019B00221146322001F003FB322033
:1021700001F010FB03B05DF804FB00BF000C004051
:102180000044025830B5B9B004460021339134916F
:10219000359136913791C02202A80BF00FFF2268CB
:1021A000354B9A4201D039B030BD01220023CDE930
:1021B000022302A804F030FC002853D12F4BD3F89F
:1021C000F02042F01002C3F8F020D3F8F02002F023
:1021D00010020092009AD3F8E02042F00202C3F805
:1021E000E020D3F8E03003F002030193019BC02309
:1021F000339302233493002535953695072337937F
:1022000033A91F4802F030FD1E481F4B03602923ED
:1022100043608560C5604FF48063036145618561FB
:10222000C5610562456201F02DFDF0B9154BC4F89A
:1022300080309C631548164B03602A23436040237B
:1022400083600023C3604FF4806202614361836155
:10225000C3610362436201F015FD48B90B4BE367AC
:102260009C63A0E7FFF742FBA8E7FFF73FFBDDE732
:10227000FFF73CFBF2E700BF0010014000440258AA
:10228000000402589008002028000240180800208E
:1022900040000240FEE7FEE7FEE7FEE7FEE770478C
:1022A0007047704708B500F083F908BD08B50248CB
:1022B00002F03EF908BD00BFE809002008B5024859
:1022C00002F036F908BD00BF9008002008B50248AA
:1022D00002F02EF908BD00BF1808002008B502481A
:1022E00002F026F908BD00BFE80B002008B502483F
:1022F00000F0CAF908BD00BFC40C002008B50248B0
:1023000006F0A4FB08BD00BFE80A002008B503489A
:1023100006F039FD02480AF0D7F908BD9C090020F3
:10232000280D002008B5024803F0FFF808BD00BFE3
:102330006C12002008B5024800F0A6F908BD00BFE5
:10234000600C002008B5024802F0F2F808BD00BF9A
:10235000700B00200120704708B50BF019FF162301
:1023600003604FF0FF3008BD08B54FF0FF31FFF7B5
:10237000F3FFFEE770B50C461646002506E0AFF306
:102380000080214601F8010B01350C46B542F6DB11
:10239000304670BD4FF0FF3070474FF400534B6034
:1023A00000207047012070470020704710B5034699
:1023B0000C4A0D490D48006840B10C4800680344C0
:1023C000521A934206D8094A136010BD0748084CB8
:1023D0000460F2E70BF0DCFE0C2303604FF0FF30EB
:1023E000F3E700BF00000220001000002C0D0020C9
:1023F000502C0020244B1B6803F00F03062B06D83B
:10240000214A136823F00F0343F0070313601F4BA7
:102410001A6842F001021A6000221A6119681C4A07
:102420000A401A60184B1B6813F0080F06D0164AB2
:10243000136823F00F0343F007031360134B0022CC
:102440009A61DA611A62134999621349D962134990
:1024500019635A639963DA6319645A64196821F439
:10246000802119601A660E4B1A680E4B1340B3F1A7
:10247000005F03D20C4B0122C3F808210B4B43F23F
:10248000D2021A60704700BF002000520044025878
:102490007FEDF6EA000202020000FF018002010166
:1024A0000010005C0000FFFF00800051004000525F
:1024B000DFF834D0FFF79EFF0C480D490D4A00238A
:1024C00002E0D458C4500433C4188C42F9D30A4AE9
:1024D0000A4C002301E013600432A242FBD30BF04C
:1024E0005DFEFFF731FC7047000002200000002075
:1024F000FC070020744A0108FC070020502C002033
:10250000FEE70000104B1B780BB90120704710B597
:1025100004464FF47A70B0FBF3F30C4A1068B0FB3A
:10252000F3F001F03BF968B90F2C01D901200AE062
:10253000002221464FF0FF3001F01CF9044B1C60D3
:10254000002000E0012010BD080000200400002051
:102550000C00002010B5032001F0FAF803F0B4FEDF
:102560000F498B69C3F303230E4AD35C03F01F03A7
:10257000D8408B6903F00F03D35C03F01F0320FAEC
:1025800003F3094A1360094B18600F20FFF7BAFFE5
:1025900010B10124204610BD0446FFF74FFCF9E7B7
:1025A00000440258B8410108000000200400002047
:1025B000034B1B78034A11680B441360704700BF3C
:1025C00008000020300D0020014B1868704700BF44
:1025D000300D002038B50446FFF7F6FF0546B4F18C
:1025E000FF3F02D0044B1B781C44FFF7EDFF401B5C
:1025F000A042FAD338BD00BF08000020014B186884
:10260000000C70470010005C034A536823EA000383
:102610000B435360704700BF0004005810B43030C3
:102620000B0A9B0003F00C03C45801F01F014FF08C
:102630001F0C0CFA01FC24EA0C0CC2F384628A40E1
:102640004CEA0202C25010BC704710B414304B0E5A
:102650009B0003F00403C458C1F304514FF0070C6E
:102660000CFA01FC24EA0C0C8A404CEA0202C2502B
:1026700010BC70477047704708B5806BFFF7FBFFD1
:1026800008BD704770470000F8B5044603681D6830
:102690005E689C499C4A934218BF8B4240D19B4B39
:1026A0009F6807F01F0715F0020F10D016F0020FF9
:1026B0000DD0636D13F0100F03D1636D43F400630D
:1026C0006365204600F05AFF236802221A6015F065
:1026D000040F02D016F0040F05D115F0080F4FD0EB
:1026E00016F0080F4CD0636D13F0100F03D1636D1B
:1026F00043F4007363652368DA6812F4406F39D1DC
:10270000814A93420ED01A4693420ED0092F05D823
:1027100040F22121F94011F0010F06D1D26805E005
:102720007B4BBDE7A2F58072EEE7DA6812F4005F3A
:1027300020D11A6812F0080F1CD09A6812F0040F0A
:1027400010D15A6822F00C025A60636D23F4807332
:102750006365636D13F4805F0CD1636D43F0010317
:10276000636507E0636D43F010036365A36D43F099
:102770000103A3652046FFF77DFF23680C221A6042
:1027800015F0200F02D016F0200F05D115F0400FE4
:1027900063D016F0400F60D0636D13F0100F03D1BB
:1027A000636D43F4005363652368DA6C12F4C07FF1
:1027B00019D10121DA6812F4406F16D10120524A72
:1027C000934214D01A46934214D0062F14BF4FF0F0
:1027D000000C4FF0010C6FB1BCF1000F0AD1072FB4
:1027E00008D0D26807E00021E4E70020E7E7A2F57F
:1027F0008072E8E7DA6851B312F0007F03D030B39B
:1028000012F4005F23D1196811F0400F1FD012F4A9
:10281000001F1CD19A6812F0080F10D15A6822F0DC
:1028200060025A60636D23F480536365636D13F433
:10283000807F0CD1636D43F00103636507E0636D36
:1028400043F010036365A36D43F00103A3652046C5
:1028500000F090FE236860221A6015F0800F02D00D
:1028600016F0800F36D115F4807F02D016F4807FE9
:102870003BD115F4007F02D016F4007F4AD115F049
:10288000100F20D016F0100F1DD0236B6BB1002F4E
:102890004ED023681B491C4A934218BF8B4245D136
:1028A0001A4B9B6813F4404F0AD0636D43F4806366
:1028B0006365A36D43F00203A3652046FFF7E2FEC4
:1028C000236810221A6015F4806F02D016F4806F0E
:1028D00034D1F8BD636D43F4803363652046FFF760
:1028E000D0FE236880221A60BDE7636D43F4003395
:1028F0006365204600F040FE23684FF480721A6042
:10290000B7E700BF00200240002102400023024040
:1029100000630258636D43F480236365204600F032
:102920002CFE23684FF400721A60A8E70B4BB8E73F
:102930002368DB6813F0030FC2D0B6E7636D43F47E
:1029400080436365A36D43F00803A36523684FF4D8
:1029500080621A60204600F00EFEBAE7006302585B
:1029600008B50346806B426D12F0500F30D1436DB5
:1029700043F40073436503681A6812F0080F14D01B
:10298000DA6812F4406F20D1DB6813F4005F1CD1C9
:10299000436D23F480734365436D13F4805F14D15A
:1029A000436D43F0010343650FE0DB6813F0030F51
:1029B0000BD1436D23F480734365436D13F4805F43
:1029C00003D1436D43F001034365FFF753FE08BD98
:1029D000426D12F0100F04D1C26CD26C18469047B1
:1029E000F5E7FFF74FFEF2E708B5806B436D43F064
:1029F00040034365836D43F004038365FFF742FEA4
:102A000008BD000070B582B00023019390F85030EB
:102A1000012B00F0248204460D46012380F850303B
:102A20000268936813F0040F09D0436D43F020034C
:102A300043650120002384F8503002B070BD0B685C
:102A4000C3F3130100293CD1C3F3846301219940EE
:102A5000D3690B43D3612A6869682068FFF7DEFDFC
:102A60002068836813F0040300D00123826812F009
:102A7000080200D0012252EA03062ED02268936891
:102A800013F0010F40F0E7812B68E868D2F8C0101E
:102A9000C3F3130621EA060100F01806AE48F04021
:102AA0000340C3F313030B43C2F8C030EA68AB4BD7
:102AB0009A4200F0A1802B68002BC0F253810020C5
:102AC000B8E793FAA3F333B1B3FA83F303F01F0328
:102AD00001219940BCE72023F8E7AA682968FFF79D
:102AE000B4FD9F4B1B6803F07043B3F1805F0BD0C4
:102AF0002268D36813F0100F3BD16B69D268C2F320
:102B000082025200934006E06B692268D268C2F3E9
:102B10008202520093402969042938D0226828682B
:102B200002F1600C5CF8212002F0004200F0F84055
:102B3000034313434CF82130236828696A7E012A35
:102B40001FD03146603353F8202022F000420A4360
:102B500043F8202021682A692B7E012B14D00B69B1
:102B600023F4F04302F01F0206FA02F213430B6152
:102B700084E76B69D268920802F004025200934025
:102B8000C9E74FF00041DDE74FF40066E7E7226850
:102B9000136E03F0F8432968B3EB816F1DD02268F0
:102BA000536E03F0F8432968B3EB816F1AD02268A3
:102BB000936E03F0F8432968B3EB816F17D0226856
:102BC000D36E03F0F8432968B3EB816F7FF456AFFF
:102BD000D36E23F00043D36650E7136E23F0004317
:102BE0001366DCE7536E23F000435366DFE7936E12
:102BF00023F000439366E2E720682B68C3F31306D3
:102C00003EBB9A0E013202F01F02092A8CBF00223D
:102C10000122002A55D05EBB990E0131890601F0D0
:102C2000F8418EBB4FEA936C0CF1010C0CF01F0CB9
:102C3000012202FA0CF21143AEBB9B0E013303F0EA
:102C40001F0303EB43031B051943AA68FFF7FDFCB1
:102C500031E793FAA3F24AB1B2FA82F2013202F0FA
:102C60001F02092A8CBF00220122D2E72022F5E7A9
:102C700093FAA3F131B1B1FA81F10131890601F082
:102C8000F841CEE72021F8E793FAA3F24AB1B2FA6D
:102C900082F2013202F01F024FF0010C0CFA02F234
:102CA000C9E72022F5E793FAA3F343B1B3FA83F31C
:102CB000013303F01F0303EB43031B05C4E7202389
:102CC000F6E7E6B9990E0131890601F0F84116BB25
:102CD0004FEA936C0CF1010C0CF01F0C012202FA6C
:102CE0000CF2114336BB9B0E013303F01F0303EBC1
:102CF00043031E3B1B0543F000731943A5E793FAFA
:102D0000A3F131B1B1FA81F10131890601F0F84145
:102D1000DDE72021F8E793FAA3F24AB1B2FA82F292
:102D2000013202F01F024FF0010C0CFA02F2D8E758
:102D30002022F5E793FAA3F35BB1B3FA83F30133EF
:102D400003F01F0303EB43031E3B1B0543F000731B
:102D5000D3E72023F3E700BFFFFF0F000000FF478A
:102D60000010005C22683F493F48824218BF8A42F7
:102D70000CBF0121002118D13C4EB56805F0E07C64
:102D8000A9B13849886810F0010000D00120364907
:102D9000896811F0010100D0012101430CD0636D5D
:102DA00043F020036365012044E6314EE5E73149F5
:102DB000896811F0010FF2D12F498B4207D02F49BA
:102DC0008B4226D02E498B4234D0002032E615F4B7
:102DD000000FF4D1274B9A4201D000202AE64CF490
:102DE0000003B26822F0E0721343B360254B1B6806
:102DF0009B09254AA2FB03239B0901335B00019336
:102E000002E0019B013B0193019B002BF9D10020C3
:102E100010E615F0807FD5D1164B9A4201D00020E4
:102E200008E64CF08073B26822F0E0721343B3609E
:102E30000020FFE515F4800F0FD10E4B9A4201D010
:102E40000020F7E54CF48003B26822F0E0721343EF
:102E5000B3600020EEE50020ECE50020EAE502206A
:102E6000EBE500BF002002400021024000230240A9
:102E70000063025800600258000084CB000052C773
:102E80000000B8CF04000020632D3E0538B503686C
:102E90009A6812F0010F56D1044699682B4A1142E4
:102EA00009D0436D43F010034365836D43F0010384
:102EB0008365012048E09968254A0A4042F00102F2
:102EC0009A60FFF781FB054623682249224A934214
:102ED00018BF8B420DD102F50072926802F01F02FA
:102EE0001D498B4207D01946994207D032B10020C4
:102EF0002AE01A4AF1E7A1F58071F5E723681A681C
:102F000012F0010F1DD19A6812F0010F05D19968D6
:102F10000F4A0A4042F001029A60FFF755FB401B3E
:102F20000228EBD923681B6813F0010FE6D1636D0B
:102F300043F010036365A36D43F00103A365012013
:102F400002E0002000E0002038BD00BF3F0000800C
:102F5000C0FFFF7F002002400021024000630258B2
:102F6000F8B504460E46174600683D4A3D4B984268
:102F700018BF90421AD103F500739D6805F01F0534
:102F8000806810F0040F67D194F85030012B65D0A1
:102F9000012384F85030052D18BF002D08D0092DCD
:102FA00006D0002384F85030012056E02E4BE4E791
:102FB0002046FFF76BFF00284AD1626DA0F602732E
:102FC000134043F4807363652368264A934239D0E3
:102FD0001A46934200D01DB9636D23F480136365D4
:102FE000636D13F4805F30D0A36D23F00603A365F7
:102FF000E36C1E4ADA63E36C1D4A1A64E36C1D4AF3
:10300000DA6423681C221A60002384F85030226896
:10301000536843F0100353602168E36ACA6822F0E2
:1030200003021343CB6021683B4632464031E06CDB
:1030300000F0FAFF226891680F4B0B4043F0040345
:1030400093600AE0A2F58072C3E70023A365CFE78F
:10305000002384F8503000E00220F8BD0220FCE795
:10306000002002400021024000630258612900084C
:1030700079260008E9290008C0FFFF7F38B504461B
:103080000268936813F0020300D00123916811F0E5
:10309000010F37D0002B37D1936803F00D03012BBC
:1030A00009D0636D43F010036365A36D43F0010322
:1030B000A365012027E09168144B0B4043F0020305
:1030C0009360236803221A60FFF77EFA054623689F
:1030D0009B6813F0010F13D0FFF776FA401B02280C
:1030E000F5D923689B6813F0010FF0D0636D43F0AE
:1030F00010036365A36D43F00103A365012002E0A3
:10310000002000E0002038BD0020FCE7C0FFFF7F6A
:1031100038B5044603684F494F4A934218BF8B4263
:1031200023D14E4B9B6813F4403F14BF012300236F
:103130004BB303F01FFB05466368B3F5003F1CD09B
:10314000B3F5403F1DD0B3F5803F16D0FFF756FAD8
:1031500041F20303984258D8414B9D424FD922680F
:10316000936843F48073936038BD3E4B9B6813F4BF
:10317000403F14BF01230023DAE71B0CB5FBF3F536
:10318000E4E78508E2E74FF40020002104F0EAFCC0
:1031900005466368B3F5101F2DD022D8B3F5E01FA4
:1031A00027D004D9B3F5001FD0D14509CEE7B3F538
:1031B000801F0DD006D9B3F5A01F09D0B3F5C01FED
:1031C00006D0C3E7B3F5002F02D0B3F5402F04D1EA
:1031D0009B0C5B00B5FBF3F5B8E7B3F5802FF7D098
:1031E000B4E7B3F5201F08D0B3F5301FAED1050A00
:1031F000ACE70509AAE78509A8E7C509A6E722689B
:10320000936823F480739360AEE7174B9D4205D813
:103210002268936823F440739360A5E7134B9D42A3
:1032200007D82268936823F4407343F48073936053
:103230009AE70F4B9D4207D82268936823F44073A6
:1032400043F4007393608FE72268936843F44073FC
:10325000936089E7002002400021024000230240E1
:10326000002D31010063025821BCBE0041787D0170
:1032700081F0FA0230B583B000230193002800F0FA
:103280000A810446436DEBB123689A6812F0005F2F
:1032900003D09968814A0A409A6023689A6812F0BC
:1032A000805F1CD199687E4A0A4042F080529A6041
:1032B0007C4B1B689B097C4AA2FB03239B090133BF
:1032C000019309E0FEF7CCFD0023A36584F850309C
:1032D000DAE7019B013B0193019B002BF9D12268A6
:1032E000936813F0805F40F09980636D43F01003A2
:1032F0006365A36D43F00103A3650125936813F093
:10330000040300D00123616D11F0100F40F0BB8069
:10331000002B40F0B880636D23F4817343F0020307
:103320006365936813F0010F1ED16049604B9A42A8
:1033300018BF8A420CBF0122002271D1896811F0A6
:10334000010100D001215A4B9B6813F0010300D00A
:1033500001230B4308D1002A68D0564963688A6864
:1033600022F47C1213438B60FFF748F941F2030308
:10337000984202D9A368102B5AD0627D236B43EA8E
:103380004233A2681343227F43EA0243227F012A89
:1033900059D0626A22B102F47872A16A0A431343D7
:1033A0002168C868444A02401A43CA6021688A6892
:1033B00012F0040200D001228B6813F0080300D041
:1033C000012313431BD1227DE36A43EA8232C8689A
:1033D0003A4B03401343CB6094F83830012B37D07D
:1033E0002268136923F0010313612268136923F033
:1033F0007043616B0B4313612046FFF789FEE3685E
:10340000012B37D02268136B23F00F031363636D16
:1034100023F0030343F00103636539E000256DE702
:10342000274B9B6813F0010F9ED194E7254995E740
:10343000617D226B42EA41321343227F43EA024319
:1034400043F00C03A2E7226A013A43EA4243A0E7B1
:10345000206802691C4B1340E26B511E226C42EA49
:103460000142616C0A43A16C0A43134343F0010318
:103470000361BAE721680B6B23F00F03A269013ADD
:1034800013430B63C3E7636D43F0100363650125CA
:10349000284603B030BD0125FAE700BFC0FFFF5F3B
:1034A000C0FFFF6F04000020632D3E050020024096
:1034B000002102400023024003C0F0FFFCBFFFFFD9
:1034C00000600258006302581EF800FC70B582B01C
:1034D0000023019390F85030012B43D004460D4651
:1034E0001646012380F85030FFF7C8FD002830D180
:1034F000626D1D4B134043F00203636521688A68C7
:103500001A4B134005F4803506F0804645EA060262
:10351000134343F000438B6023689B68002B06DB5A
:10352000636D23F0030343F00103636515E0019B22
:1035300001330193019A0E4B9A42EDD3636D23F050
:10354000120343F010036365002384F85030012018
:1035500006E0636D43F010036365002384F8503088
:1035600002B070BD0220FBE7FDEEFFFFC0FFFE3F93
:1035700000F8C325704770477047704770470000D8
:1035800090F85020012A00F0968030B49AB003469B
:10359000012280F850200022169217920068474AB4
:1035A000904236D000220192019A002A35D09268CA
:1035B00012F0040200D00122846814F0040F6BD1D1
:1035C000002A69D13D4C3E4A904218BFA0422DD1FD
:1035D00002F500720868002839D0906820F4404055
:1035E0004C68204390601868344D354CA04218BF99
:1035F000A8421DD1AC6814F0010400D00124304869
:10360000806810F0010000D00120204315D0002078
:1036100047E002F580720192C6E75A6D42F020023F
:103620005A65002283F8502001203DE0254AD1E769
:103630002548806810F0010F39D194682348204054
:103640000C688968214308439060002029E0916854
:1036500021F4404191601968184C1948814218BF03
:10366000A1420ED1A06810F0010000D00120144941
:10367000896811F0010100D00121014306D000202A
:103680000FE01149896811F0010F12D190680F49BC
:1036900001409160002004E05A6D42F020025A651A
:1036A0000120002283F850201AB030BC704700205F
:1036B000F7E70020F5E70220704700BF0020024036
:1036C000002102400063025800600258E0F0FFFF52
:1036D000002807DB00F01F02400901239340024A43
:1036E00042F82030704700BF00E100E0002804DB12
:1036F0000901C9B2044B1954704700F00F000901C9
:10370000C9B2024B1954704700E400E014ED00E028
:1037100000B500F00700C0F1070CBCF1040F28BF92
:103720004FF0040C031D062B0FD9C31E4FF0FF3EB4
:103730000EFA0CF021EA000199400EFA03FE22EA8B
:103740000E0241EA02005DF804FB0023EEE70000F0
:103750000649CB6823F4E0631B041B0C000200F451
:10376000E0600343024A1A43CA60704700ED00E07C
:103770000000FA0510B50446054BD868C0F30220D6
:10378000FFF7C6FF01462046FFF7B0FF10BD00BFA0
:1037900000ED00E008B5FFF79BFF08BD0138B0F170
:1037A000807F0BD24FF0E0235861054AF02182F868
:1037B00023100020986107221A617047012070478A
:1037C00000ED00E0BFF35F8F044B5A6A22F48032B1
:1037D0005A620022C3F89420704700BF00ED00E059
:1037E00040F00100054BC3F894005A6A42F480325D
:1037F0005A62BFF34F8FBFF36F8F704700ED00E049
:103800004278164BC3F898200378FBB14368134AFB
:10381000C2F89C30017BC37A1B0643EA0173817AAC
:1038200043EAC143417B43EA8143817B43EA41430D
:10383000C17B43EA0143417A43EA0123017A43EA27
:10384000410301780B43C2F8A0307047034B0022BC
:10385000C3F89C20C3F8A020704700BF00ED00E033
:10386000F0B4876D0468664E664DAC4218BFB44232
:1038700042D01835AC423FD01835AC423CD0183558
:10388000AC4239D01835AC4236D01835AC4233D0C2
:103890001835AC4230D005F55675AC422CD01835F1
:1038A000AC4229D01835AC4226D01835AC4223D0D2
:1038B0001835AC4220D01835AC421DD01835AC427A
:1038C0001AD01835AC4217D04F4DAC4214D0143535
:1038D000AC4211D01435AC420ED01435AC420BD0F2
:1038E0001435AC4208D01435AC4205D01435AC4286
:1038F00002D01435AC4207D1446E856E6560C46E4B
:1039000014B1046F456F656004683D4E3D4DAC4297
:1039100018BFB44252D01835AC424FD01835AC4223
:103920004CD01835AC4249D01835AC4246D0183589
:10393000AC4243D01835AC4240D005F55675AC4288
:103940003CD01835AC4239D01835AC4236D0183599
:10395000AC4233D01835AC4230D01835AC422DD003
:103960001835AC422AD01835AC4227D0264E274D08
:10397000AC4218BFB44211D0254DAC420ED0143524
:10398000AC420BD01435AC4208D01435AC4205D053
:103990001435AC4202D01435AC4224D1C46D04F0CD
:1039A0001F050124AC407C60046863608368402B81
:1039B00020D0036899600368DA6014E0C46D04F0F5
:1039C0001F0C3F2404FA0CF4BC6005682C6824F436
:1039D00080242C60046863608368402B05D00368F2
:1039E00099600368DA60F0BC704703689A60036806
:1039F000D960F8E703689A600368D960F3E700BF0D
:103A00001000024028000240085402581C5402587A
:103A10003054025803682749274A934218BF8B4203
:103A20002FD0183293422CD01832934229D018321A
:103A3000934226D01832934223D01832934220D09A
:103A4000183293421DD002F55672934219D01832A3
:103A5000934216D01832934213D01832934210D0AA
:103A6000183293420DD0183293420AD01832934242
:103A700007D01832934204D023F0FF038365806D92
:103A8000704710B4D9B210390C4AA2FB0142C2F3FC
:103A900002120B4CA25CC2655F2906D9094A1A4082
:103AA00004328265806D10BC7047064A1A408265F8
:103AB000F8E700BF1000024028000240ABAAAAAA03
:103AC000C841010800FCFFFF83699BB9836A012B91
:103AD0000AD0022B02D00BB100207047C36A13F04A
:103AE000807F2AD100207047C36AB3F1C07F26D0FF
:103AF00000207047B3F5005F0AD0836A022B26D9F5
:103B0000032B26D1C36A13F0807F24D10020704795
:103B1000836A032B03D8DFE803F01404140A00209F
:103B20007047C36A13F0807F0DD100207047C36ACD
:103B3000B3F1C07F09D000207047012070470120F9
:103B40007047012070470120704701207047012015
:103B5000704700207047012070470000036821492A
:103B6000214A934218BF8B4227D01432934224D06B
:103B70001432934221D0143293421ED01432934215
:103B80001BD01432934218D01432934215D0DAB2BB
:103B9000103A1649A1FB0212120915491944A82925
:103BA0001ED9144B13449B000366134B436602F06B
:103BB0001F020123934083667047DBB2083B0F4A24
:103BC000A2FB03230E4A02EB1312920002660D4A77
:103BD0004266C3F30413012202FA03F383667047BB
:103BE0000832DEE7085402581C540258ABAAAAAAAD
:103BF000F0FBFDBF0082001080080240CDCCCCCC91
:103C0000009600168058025801794A1E072A2BD8C0
:103C100030B40368154D164CA34218BFAB4218D000
:103C20001434A34215D01434A34212D01434A34246
:103C30000FD01434A3420CD01434A34209D014344E
:103C4000A34206D00B4B0B449B00C3660A4B036791
:103C500005E00A4B0B449B00C366094B0367012335
:103C60009340436730BC7047704700BF0854025808
:103C70001C5402583F820010400902403F96001633
:103C80004059025870B50446FEF79EFC002C00F027
:103C9000B681054623685349534A934218BF8B4265
:103CA0000CBF0121002150D0183293424DD0183260
:103CB00093424AD01832934247D01832934244D0AC
:103CC0001832934241D0183293423ED002F55672D8
:103CD00093423AD01832934237D01832934234D0BC
:103CE0001832934231D0183293422ED01832934278
:103CF0002BD01832934228D01832934225D03B491A
:103D00003B4A934218BF8B4200F03181394A9342BB
:103D100000F02D811432934200F029811432934235
:103D200000F025811432934200F021811432934235
:103D300000F01D811432934200F019814023636525
:103D4000032384F8353001204AE0022284F835202C
:103D5000002284F8342079BB274A93422CD01832B1
:103D6000934229D01832934226D01832934223D05E
:103D70001832934220D0183293421DD002F5567269
:103D8000934219D01832934216D01832934213D06E
:103D90001832934210D0183293420DD01832934209
:103DA0000AD01832934207D01832934204D01A68CE
:103DB00022F001021A6003E01A6822F001021A6080
:103DC00023681A6812F0010F18D0FEF7FDFB431BA1
:103DD000052BF5D920236365032384F835300120B2
:103DE00070BD00BF10000240280002400854025875
:103DF0001C54025830540258400002401A6881494D
:103E00001140A268E06802432069024360690243EE
:103E1000A0690243E0690243206A02430A43616ADF
:103E2000042900F099807849086878490140B1F187
:103E3000005F11D36168A1F12905A1F13F000328BA
:103E400088BF052D06D9A1F14700012802D94F39B5
:103E5000032901D842F480121A602668756925F09A
:103E60000705636A1D43042B08D1A36A1D43E36A57
:103E700023B12046FFF728FE002872D17561204645
:103E8000FFF7C8FDE36D03F01F023F2393408360FB
:103E900023685F495F4A934218BF8B4242D0183271
:103EA00093423FD0183293423CD01832934239D0DB
:103EB0001832934236D01832934233D0183293429C
:103EC00030D002F5567293422CD01832934229D04A
:103ED0001832934226D01832934223D0183293429C
:103EE00020D0183293421DD0183293421AD0183283
:103EF000934217D0484A934214D01432934211D0BF
:103F0000143293420ED0143293420BD014329342A7
:103F100008D01432934205D01432934202D01432A6
:103F2000934213D12046FFF719FEA368802B59D086
:103F3000236E22791A60636EA26E5A606368013B39
:103F4000072B52D90023E36623676367002060656F
:103F5000012384F8353043E7E16A206B01430A43CB
:103F600061E740236365012084F8350038E70222C9
:103F700084F83520002284F834201A68274911403B
:103F8000A268402A2CD0802A27D00022E06842EA8A
:103F9000D002206942EAD002606942EAD002A069F8
:103FA00042EAD002E06942EAD002206A42EA1012F4
:103FB0000A431A6022681A4B13441A4AA2FB0323CD
:103FC0001B099B00E3652046FFF724FDE26D02F02C
:103FD0001F0101228A4042605AE74FF48042D5E730
:103FE0001022D3E700236360A2E72046FFF70CFE10
:103FF000E36E00221A60236F626F5A60A6E7012009
:10400000EEE600BF3F8010FE0010005C0000FFFFE6
:104010001000024028000240085402580F00FEFF22
:10402000F8ABFDA7CDCCCCCC002800F03E8170B51C
:10403000044690F83400012800F03981012084F80A
:10404000340094F83500C0B2012807D04FF4006363
:104050006365002384F83430012070BD022084F8A9
:104060003500002060652068924E934DA84218BF2D
:10407000B0422FD01835A8422CD01835A84229D0EC
:104080001835A84226D01835A84223D01835A842A2
:1040900020D01835A8421DD005F55675A84219D074
:1040A0001835A84216D01835A84213D01835A842A2
:1040B00010D01835A8420DD01835A8420AD01835AE
:1040C000A84207D01835A84204D0056825F001059C
:1040D000056003E0056825F0010505602046FFF74F
:1040E000BFFB23687349744A934218BF8B4238D090
:1040F0001832934235D01832934232D0183293425C
:104100002FD0183293422CD01832934229D0183233
:10411000934226D002F55672934222D0183293422F
:104120001FD0183293421CD01832934219D0183243
:10413000934216D01832934213D01832934210D0C3
:10414000183293420DD01A6822F00E0242F00A0291
:104150001A60236C93B12268136843F00403136060
:104160000CE01A6822F01E0242F016021A60236C5C
:1041700023B12268136843F00803136023684D4994
:104180004D4A934218BF8B4242D0183293423FD0DF
:10419000183293423CD01832934239D018329342AD
:1041A00036D01832934233D01832934230D002F5D1
:1041B000567293422CD01832934229D0183293422F
:1041C00026D01832934223D01832934220D018328E
:1041D00093421DD0183293421AD01832934217D00E
:1041E000364A934214D01432934211D0143293427F
:1041F0000ED0143293420BD01432934208D01432B2
:10420000934205D01432934202D0143293420ED11D
:10421000236E1A6812F4803F03D01A6842F4807249
:104220001A60E36E1BB11A6842F480721A60236848
:104230002049214A934218BF8B4230D01832934212
:104240002DD0183293422AD01832934227D01832F8
:10425000934224D01832934221D0183293421ED078
:1042600002F5567293421AD01832934217D0183280
:10427000934214D01832934211D0183293420ED088
:10428000183293420BD01832934208D0183293421E
:1042900005D01A6842F001021A600020DDE61A68B3
:1042A00042F001021A600020D7E601207047022088
:1042B000D3E600BF10000240280002400854025814
:1042C000002800F0288108B5024690F83530DBB2AE
:1042D000022B03D080234365012008BD036890486A
:1042E00090498B4218BF83420CBF0120002065D04B
:1042F00018318B4262D018318B425FD018318B421B
:104300005CD018318B4259D018318B4256D01831BD
:104310008B4253D001F556718B424FD018318B42EE
:104320004CD018318B4249D018318B4246D01831CD
:104330008B4243D018318B4240D018318B423DD054
:1043400018318B423AD0196821F00E0119601368B8
:10435000734874498B4218BF83426AD072498B42BA
:1043600067D018318B4264D018318B4261D018313C
:104370008B425ED018318B425BD018318B4258D0C3
:1043800001F556718B4254D018318B4251D01831FF
:104390008B424ED018318B424BD018318B4248D0D3
:1043A00018318B4245D018318B4242D018318B42A4
:1043B0003FD0196821F0010119603EE0042182F824
:1043C000351080BB584A93422DD0183293422AD0E0
:1043D0001832934227D01832934224D01832934295
:1043E00021D0183293421ED002F5567293421AD051
:1043F0001832934217D01832934214D01832934295
:1044000011D0183293420ED0183293420BD018328A
:10441000934208D01832934205D01A6822F0010264
:104420001A60002059E71A6822F001021A60002081
:1044300053E7196821F001011960136838483949B8
:104440008B4218BF834242D018318B423FD0183183
:104450008B423CD018318B4239D018318B4236D048
:1044600018318B4233D018318B4230D001F5567160
:104470008B422CD018318B4229D018318B4226D058
:1044800018318B4223D018318B4220D018318B4207
:104490001DD018318B421AD018318B4217D02349C6
:1044A0008B4214D014318B4211D014318B420ED078
:1044B00014318B420BD014318B4208D014318B4213
:1044C00005D014318B4202D014318B4217D1116EBA
:1044D0000B6823F480730B60906DD36D03F01F01A4
:1044E00001238B404360536E916E5960D36E33B19C
:1044F000196821F480711960136F516F596001239D
:1045000082F83530002382F83430136D2BB1104619
:1045100098470020E1E6012070470020DDE600BF5B
:104520001000024028000240400002400854025897
:10453000F0B583B00446002301937D4B1D687D4B8D
:10454000A3FB0535AD0A876D3E68D7F800C0036848
:1045500079497A48834218BF8B420CBF0120002062
:1045600061D0774A93425ED0183293425BD01832C2
:10457000934258D01832934255D01832934252D0B9
:10458000183293424FD002F5567293424BD01832F4
:10459000934248D01832934245D01832934242D0C9
:1045A000183293423FD0183293423CD01832934293
:1045B00039D01832934236D06249634A934218BFC9
:1045C0008B4212D0614A93420FD0143293420CD0E6
:1045D0001432934209D01432934206D014329342DB
:1045E00003D01432934240F061821A68E16D01F009
:1045F0001F010420884010EA0C0F00F0A78212F07F
:10460000040F00F0A382786012F4004F00F05A8289
:1046100012F4803F40F05082A36C002B00F04682E1
:104620002046984742E2E26D02F01F0108228A40CC
:10463000324241D070BB424A93422BD0183293424F
:1046400028D01832934225D01832934222D0183203
:1046500093421FD0183293421CD002F556729342F7
:1046600018D01832934215D01832934212D0183213
:1046700093420FD0183293420CD01832934209D093
:104680001832934206D01832934203D01A68C2F30C
:10469000C00202E01A68C2F380026AB11A6822F00E
:1046A00004021A60E36D03F01F0208239340BB600D
:1046B000636D43F001036365E26D02F01F0226FAA9
:1046C00002F313F0010F47D023681B481B498B42AC
:1046D00018BF83423CD018318B4239D018318B42FD
:1046E00036D018318B4233D018318B4230D018314C
:1046F0008B422DD018318B422AD001F556718B4256
:1047000026D018318B4223D018318B4220D018315B
:104710008B421DD018318B421AD018318B4217D0E2
:1047200018318B4214D018318B4211D01B6813E022
:1047300004000020B5814E1B1000024028000240FA
:1047400040000240085402581C5402583054025889
:104750005B6913F0800F3BD1E36D03F01F0304226C
:1047600002FA03F333423FD02268964896498A42C0
:1047700018BF824234D018318A4231D018318A426F
:104780002ED018318A422BD018318A4228D01831C5
:104790008A4225D018318A4222D001F556718A42C8
:1047A0001ED018318A421BD018318A4218D01831D5
:1047B0008A4215D018318A4212D018318A420FD05D
:1047C00018318A420CD018318A4209D013680BE0A4
:1047D00001239340BB60636D43F002036365BBE755
:1047E000126812F0020F3DD1E36D03F01F03102297
:1047F00002FA03F333425FD02268724872498A4258
:1048000018BF824234D018318A4231D018318A42DE
:104810002ED018318A422BD018318A4228D0183134
:104820008A4225D018318A4222D001F556718A4237
:104830001ED018318A421BD018318A4218D0183144
:104840008A4215D018318A4212D018318A420FD0CC
:1048500018318A420CD018318A4209D01268C2F34A
:10486000800208E0BB60636D43F004036365BBE74F
:104870001268C2F3C002FAB1BB6023681A6812F46E
:10488000802F0DD01B6813F4002F04D1236C9BB133
:104890002046984710E0A36C73B1204698470BE080
:1048A0001A6812F4807F03D11A6822F008021A6095
:1048B000236C0BB120469847E36D03F01F032022C1
:1048C00002FA03F3334200F0938022683D483E49E8
:1048D0008A4218BF82422ED018318A422BD018311A
:1048E0008A4228D018318A4225D018318A4222D0F3
:1048F00018318A421FD018318A421CD001F55671F6
:104900008A4218D018318A4215D018318A4212D002
:1049100018318A420FD018318A420CD018318A429D
:1049200009D018318A4206D018318A4203D0126861
:10493000C2F3400202E01268C2F30012002A57D00C
:10494000BB6094F83530DBB2042B0ED023681A68B4
:1049500012F4802F3AD01B6813F4002F2DD1636C12
:10496000002B45D02046984742E02268136823F088
:10497000160313602268536923F080035361236C8C
:10498000BBB12268136823F008031360E36D03F0E2
:104990001F023F239340BB60012384F8353000237E
:1049A00084F83430236D002B00F080802046984737
:1049B0007CE0A36C002BE4D1E8E7E36BC3B12046B5
:1049C000984715E010000240280002401A6812F4CF
:1049D000807F09D11A6822F010021A60012384F83E
:1049E0003530002384F83430E36B0BB12046984710
:1049F000636D002B5AD0636D13F0010F52D0042366
:104A000084F8353023689649964A934218BF8B4202
:104A10002FD0183293422CD01832934229D018321A
:104A2000934226D01832934223D01832934220D09A
:104A3000183293421DD002F55672934219D01832A3
:104A4000934216D01832934213D01832934210D0AA
:104A5000183293420DD0183293420AD01832934242
:104A600007D01832934204D01A6822F001021A606B
:104A700003E01A6822F001021A60019B01330193DE
:104A8000AB4204D823681B6813F0010FF5D12368EB
:104A90001B6813F0010F0BD0032384F8353000237B
:104AA00084F83430E36C0BB12046984703B0F0BD76
:104AB000012384F83530F2E7236C002BF6D0204632
:104AC0009847F3E712F0200F3AD123686449654A0A
:104AD000934218BF8B422FD0183293422CD01832F9
:104AE000934229D01832934226D01832934223D0D1
:104AF0001832934220D0183293421DD002F55672DC
:104B0000934219D01832934216D01832934213D0E0
:104B10001832934210D0183293420DD0183293427B
:104B20000AD01832934207D01832934204D01A6840
:104B300022F004021A6003E01A6822F008021A60E8
:104B4000236C002BB2D020469847AFE70220884064
:104B500010EA0C0F60D012F0020F5DD0786012F4F2
:104B6000004F0ED012F4803F05D1636C002B9DD016
:104B7000204698479AE7E36B002B97D0204698474A
:104B800094E712F0200F40D123683549354A93420B
:104B900018BF8B422FD0183293422CD01832934238
:104BA00029D01832934226D01832934223D018329B
:104BB000934220D0183293421DD002F55672934290
:104BC00019D01832934216D01832934213D01832AB
:104BD000934210D0183293420DD0183293420AD02B
:104BE0001832934207D01832934204D01A6822F048
:104BF0000A021A6003E01A6822F014021A60012304
:104C000084F83530002384F83430E36B002B3FF414
:104C10004DAF2046984749E7082000FA01F111EA14
:104C20000C0F3FF443AF12F0080F3FF43FAF1A6888
:104C300022F00E021A60E36D03F01F03012202FA54
:104C400003F37B60626584F83520002384F83430F8
:104C5000E36C002B3FF42AAF2046984726E700BFBD
:104C6000100002402800024070B582B000236EE0C0
:104C700085685E000324B44025EA0405CC68B4408E
:104C80002C438460456825EA0C054C68C4F3001485
:104C90009C402C4344606DE0DD08083550F8254009
:104CA00003F0070C4FEA8C0C4FF00F0E0EFA0CFEBF
:104CB00024EA0E0E0C6904FA0CF444EA0E0440F8DF
:104CC00025406FE0092400E0002404FA0EF42C4390
:104CD0000CF1020C6B4D45F82C404FF0B0442568A8
:104CE000D44325EA0206D1F804C01CF4801F01D089
:104CF00042EA05064FF0B0452E606D6804EA0506ED
:104D0000D1F804C01CF4001F01D042EA05064FF0A0
:104D1000B0456E60D5F8845004EA0506D1F804C0A9
:104D20001CF4003F01D042EA05064FF0B045C5F83B
:104D30008460D5F880502C404E6816F4803F01D036
:104D400042EA05044FF0B042C2F8804001330A68DD
:104D500032FA03F400F093804FF0010C0CFA03FCDC
:104D60001CEA0202F2D04C6804F00304013C012C5E
:104D70007FF67EAF4C6804F00304032C0CD0C468AB
:104D80005D004FF0030C0CFA05FC24EA0C0C8C6857
:104D9000AC4044EA0C04C4604C6804F00304022CE8
:104DA0003FF47AAF04684FEA430E4FF0030C0CFA5D
:104DB0000EFC24EA0C0C4C6804F0030404FA0EF414
:104DC00044EA0C0404604C6814F4403FBED02E4CFE
:104DD000D4F8F45045F00205C4F8F450D4F8F44087
:104DE00004F002040194019C4FEA930C0CF10205BB
:104DF000244C54F8255003F0030E4FEA8E0E0F2476
:104E000004FA0EF425EA0405204CA0423FF45CAFFE
:104E100004F58064A04222D004F58064A04220D032
:104E200004F58064A0421ED004F58064A0421CD02A
:104E300004F58064A0421AD004F58064A04218D022
:104E400004F58064A04216D004F58064A04214D01A
:104E500004F58064A0423FF435AF0A2435E701240D
:104E600033E7022431E703242FE704242DE7052448
:104E70002BE7062429E7072427E7082425E702B0C3
:104E800070BD00BF000400580044025800000258E2
:104E90000AB1816170470904816170472DE9F043CF
:104EA00083B0D0F8008001EBC10300EB83031A6DDF
:104EB000DB6C9A4254D807460C469B1A01EBC102A0
:104EC00000EB8202526C9A4200D31A4602F10309A7
:104ED0004FEA990915E006F103094FEA990904EB35
:104EE000C40507EB8505A96C3B7B0093B3B2E2B226
:104EF000404605F061FAAB6C3344AB642B6D334430
:104F00002B6508EB441303F510639B699BB24B457B
:104F100012D304EBC40307EB83031A6DDB6C9A42D4
:104F20000AD24BB19B1A04EBC40207EB8202566C07
:104F30009E42D0D31E46CEE704EBC40307EB8307A3
:104F4000FA6C3B6D9A420FD804F00F040122A24084
:104F5000D8F8343823EA0203C8F83438002000E0D7
:104F6000012003B0BDE8F0830020FAE770B58AB0F5
:104F7000002800F097800546046890F8BD343BB3E4
:104F8000032385F8BD34E36B13F4807F01D1002344
:104F9000EB60286804F0C6FF2C4654F8106BEC4612
:104FA0000FCCACE80F000FCCACE80F0094E8030086
:104FB0008CE803002B1D0ECB304604F0EDFE0446BA
:104FC00058B1022385F8BD34012420460AB070BDD3
:104FD00080F8BC3406F0E8FED2E70021286805F02E
:104FE000FEFB234616E003EBC30205EB8202012120
:104FF00082F83D1082F83C30A2F85630002182F849
:1050000040105164916403EBC30205EB8202D1644A
:105010000133DBB269688B42E5D316E004EBC403CD
:1050200005EB8303002283F87D2283F87C4283F81A
:105030008022C3F88422C3F8882204EBC40305EB62
:105040008303C3F88C220134E4B2A142E6D82C4693
:1050500054F8106BEC460FCCACE80F000FCCACE86A
:105060000F0094E803008CE803002B1D0ECB3046A4
:1050700004F0B4FF044660B9002385F838300123FA
:1050800085F8BD346B6A012B08D0286805F066FBF3
:105090009BE7022385F8BD34012496E7284600F0FB
:1050A00071FDF2E7012490E7036890F8BC24012A1F
:1050B0001AD010B50446012280F8BC24DA6B12F431
:1050C000807F02D1826A012A09D0206804F024FF7F
:1050D000206805F035FB002084F8BC0410BD9A6BF5
:1050E00042F480329A63F0E70220704770B50446BC
:1050F0000D460068066C00EB411303F530639A68B7
:10510000E168012911D038498E4256D03DB905EBEE
:10511000C50304EB8303D3F88C32002B5ED0E9B2D5
:10512000204606F013FF002070BD12F0080F09D0D2
:105130002E498E42F7D912F4004FF4D04FF40042BA
:105140009A60F0E712F0200F02D020229A60EAE77E
:1051500012F0280FE7D125498E4206D912F4004FEC
:1051600003D04FF400429A60DDE705EBC50204EB83
:105170008202D2F89C121B69C3F31203CB1AC2F845
:1051800090327DB905EBC50204EB8202D2F88C2285
:105190006AB105EBC50204EB8202D2F88812194409
:1051A000C2F88812E9B2204606F0D0FEBBE704F24E
:1051B000C442012105F054FBF4E712F4004F03D080
:1051C0004FF400429A60AEE712F0200F01D0202287
:1051D0009A60E9B2204606F0B9FEA4E704F2C442A0
:1051E000002105F03DFB9AE70A31544F0A30544F35
:1051F00038B5044603681D6C03EB4113D3F8081B54
:105200000E4A954207D903F5306311F4004F02D0DE
:105210004FF400429A60204606F090FE074B9D42F4
:1052200002D9E368012B01D0002038BD04F2C4424A
:105230000121206805F014FBF6E700BF0A30544F47
:1052400090F8BC34012B0DD010B50446012380F832
:10525000BC3480F83810006805F062FA002084F849
:10526000BC0410BD0220704738B505468C4611F0CD
:10527000800F29D101F00F0E0EEBCE04A40004F52F
:105280001E740444211D0EEBCE0E00EB8E0E00208A
:105290008EF87D020CF00F0C81F800C08A600B7153
:1052A0004A780AB1A1F81AC0022B1DD095F8BC3477
:1052B000012B1CD0012385F8BC34286804F062FF60
:1052C000002085F8BC0438BD01F00F0000EBC001E0
:1052D000890038312944043100EBC00005EB80001F
:1052E000012480F83D40D5E700234B71DEE7022022
:1052F000E9E710B504460A4611F0800F20D101F00D
:105300000F0000EBC0039B0003F51E732344191D1F
:1053100000EBC00004EB8000002380F87D3202F037
:105320000F020A7094F8BC34012B19D0012384F8C1
:10533000BC34206804F072FF002084F8BC0410BD67
:1053400001F00F0000EBC0039B0038332344191D0C
:1053500000EBC00004EB8000012380F83D30DEE765
:105360000220ECE708B501F00F0C0CEBCC01890032
:1053700001F51E71014404310CEBCC0E00EB8E0ED6
:10538000CEF88822CEF88C320023CEF890328EF8F8
:105390007D328EF87CC2C368012B05D0DAB200687A
:1053A00005F022F8002008BDCEF89822F6E708B5EF
:1053B00001F00F0C0CEBCC018900383101440431B1
:1053C0000CEBCC0E00EB8E0ECEF84820CEF84C3015
:1053D0000023CEF8503001238EF83D308EF83CC0CB
:1053E000C368012B05D0DAB2006804F0FDFF00208D
:1053F00008BDCEF85820F6E738B501F00F05426831
:10540000954239D804460B4611F0800F1FD101EBAD
:10541000C101890001F51E710144043103EBC3038E
:1054200000EB8303002283F87D2201238B700D7033
:1054300094F8BC34012B21D0012384F8BC342068BB
:1054400005F013F98DB1002084F8BC0438BD05EBDC
:10545000C501890038310144043105EBC50300EB77
:105460008303012283F83D20DFE704F2C442217B5D
:10547000206805F0F5F9E6E70120E7E70220E5E717
:1054800001F00F034268934231D810B5044611F081
:10549000800F1ED103EBC301890001F51E71014489
:1054A000043103EBC30200EB8202002082F87D028C
:1054B00000228A700B7094F8BC34012B19D00123A0
:1054C00084F8BC34206805F0FDF8002084F8BC04A2
:1054D00010BD03EBC301890038310144043103EBF3
:1054E000C30200EB8202012082F83D00E0E70120C8
:1054F00070470220ECE708B511F0800F0CD101F0E5
:105500000F0101EBC101890001F51E710144043155
:10551000006804F0F3FE08BD01F00F0101EBC101CA
:105520008900383101440431F2E72DE9F04F83B0AE
:1055300004460568284605F04EF910B103B0BDE8F1
:10554000F08F0646206805F017F90028F6D005F51B
:105550000067BB68C3F30D23C4F8FC34206805F072
:105560000BF910F0020F04D02268536903F0020314
:105570005361206805F000F910F0100F14D0226874
:10558000936923F010039361D5F8208008F00F0988
:10559000C8F34343022B69D0062B00F08D802268AC
:1055A000936943F010039361206805F0E5F810F467
:1055B000002F40F09380206805F0DEF810F4802F73
:1055C00040F0FC80206805F0D7F80028C0F27F8109
:1055D000206805F0D1F810F4006F09D0BB6813F013
:1055E000010F40F08C812268536903F4006353611A
:1055F000206805F0C1F810F0006F15D022685369DB
:1056000003F00063536194F8F434002B40F07B8185
:10561000012184F8F41423685B6DC3F38303C4F899
:10562000F834204600F0C2FA206805F0A5F810F41E
:10563000805F40F06C81206805F09EF810F4005FF8
:1056400040F0B881206805F097F810F0080F40F09E
:10565000C981206805F090F810F0800F00F0DC811F
:10566000AB6923F08003AB610126C5E147F6F07317
:1056700018EA030F93D04FEA181A4FEAC9030193AF
:1056800009EBC90B04EB8B0BC8F30A12DBF8881289
:10569000284604F0C7FFDBF88832CAF30A0A5344ED
:1056A000CBF88832DBF89032019A4A4404EB82024C
:1056B0005344C2F8903272E7082204F2C4412846EB
:1056C00004F0B0FF09EBC90304EB8303D3F8902285
:1056D000C8F30A184244C3F8902260E7206805F036
:1056E0004FF88046B14635E005EB49130122C3F877
:1056F000082B49462046FFF7F9FC3CE005EB49132F
:105700000822C3F8082B49462046FFF771FD35E013
:1057100009EBC90304EB830393F87F32012B41D0DB
:1057200005EB49130222C3F8082B1AF0200F04D00E
:1057300005EB49132022C3F8082B1AF4005F05D0AB
:1057400005EB49134FF40052C3F8082B09F1010986
:105750004FEA5808B8F1000F3FF42DAF18F0010FD1
:10576000F4D05FFA89FB5946206805F019F88246A3
:1057700010F0010FB8D11AF0080FBFD11AF0100FB6
:1057800004D005EB49131022C3F8082B1AF0020FBE
:10579000CBD06B6913F0800FBAD07B6843F4806381
:1057A0007B60B5E709EBC90304EB8303002283F8B0
:1057B0007F225946204606F01BFCB1E7206804F022
:1057C000E7FF8046B14625E05946204606F0CAFB71
:1057D0001AF0080F04D005EB49130822C3F8082972
:1057E0001AF0100F04D005EB49131022C3F8082952
:1057F0001AF0400F04D005EB49134022C3F80829E2
:105800001AF0020F40D11AF0800F5BD109F10109A3
:105810004FEA5808B8F1000F3FF4D4AE18F0010F6A
:10582000F4D05FFA89FB5946206804F0C2FF824633
:1058300010F0010FCCD009F00F02012101FA02F2A1
:105840007B6B23EA02037B6305EB4913C3F808195A
:10585000E3688B42B8D109EBC90304EB83039A6C6C
:10586000596C0A449A64B9F1000FADD109EBC90330
:1058700004EB8303DB6C002BA6D104F2C4420121AC
:10588000206804F0EDFF9FE74946284604F050FBEE
:1058900009EBC90304EB830393F83F30012B05D0D8
:1058A00005EB49130222C3F80829ACE709EBC90349
:1058B00004EB8303002283F83F205946204606F07C
:1058C0009DFBEDE749462046FFF7E8FA9EE77B6837
:1058D00023F001037B6094F8F434012B08D02046B8
:1058E00006F080FB2268536903F0004353616FE6C2
:1058F000002184F8F414204600F058F9F2E720461D
:1059000006F058FB6FE6204606F054FB8CE67B68F9
:1059100023F001037B601021206804F009FB1AE0EA
:1059200005EB46134FF67F31C3F80819D3F8002969
:1059300022F40012C3F80029C3F8081BD3F8002B87
:1059400022F40012C3F8002BD3F8002B42F00062BF
:10595000C3F8002B01366368B342E1D8FB6943F01A
:105960000113FB61236BDBB1D7F8843043F00B03E9
:10597000C7F884307B6C43F00B037B64D5F80038A8
:1059800023F4FE63C5F8003804F2C442217B20688A
:1059900004F066FF2268536903F4805353614AE6BA
:1059A0007A6942F22B0313437B613B6943F00B039B
:1059B0003B61E3E7206804F043FF206804F0D2FB7A
:1059C0002061266800F0D6FE0146227C304604F0B5
:1059D00031FA204606F0D7FA2268536903F40053DF
:1059E00053612FE6204606F0C8FA2268536903F097
:1059F000080353612DE601366368B3420CD906EB08
:105A0000C60304EB830393F87F32012BF3D1F1B289
:105A10002046FFF770FDEEE7206804F0ADFE10F4BD
:105A2000801F27D1206804F0A7FE10F4001F5BD070
:105A3000012328E001366368B3421DD905EB461304
:105A4000D3F8002906EBC60304EB830393F8403038
:105A5000012BEFD1002AEDDA06EBC60304EB83033A
:105A6000012283F83F2066F07F01C9B22046FFF78C
:105A700042FDDFE70126DEE72268536903F4801365
:105A80005361CFE7013362689A4228D905EB43128C
:105A9000D2F8001B03EBC30204EB820292F88022CF
:105AA000012AEFD10029EDDA01F48031D4F8FC2489
:105AB00002F001029142E5D103EBC30204EB820242
:105AC000012182F87F12AA6942F08002AA616A6904
:105AD00012F0800FD6D17B6843F400737B6022689C
:105AE000536903F400135361206804F045FE10F07D
:105AF000804F10D1206804F03FFE10F0040F3FF4F7
