:020000040800F2
:1000000000000220BD170008411600084316000832
:1000100045160008471600084916000800000000B1
:100020000000000000000000000000004B16000867
:100030004D160008000000004F1600085116000879
:100040000D1800080D1800080D1800080D180008FC
:100050000D1800080D1800080D1800080D180008EC
:100060000D1800080D1800080D1800085916000892
:100070006916000879160008891600089916000804
:100080000D1800080D1800080D1800080D180008BC
:100090000D1800080D1800080D1800080D180008AC
:1000A0000D1800080D1800080D1800080D1800089C
:1000B0000D1800080D1800080D1800080D1800088C
:1000C0000D1800080D1800080D180008A9160008E2
:1000D000B91600080D1800080D1800080D180008C2
:1000E0000D1800080D180008000000000D18000889
:1000F0000D1800080D1800080D1800080D1800084C
:100100000D1800080D180008C91600080D18000881
:100110000D1800080D1800080D1800080D1800082B
:100120000D1800080D1800080D1800080D1800081B
:100130000D1800080D1800080D1800080D1800080B
:1001400000000000000000000000000000000000AF
:100150000D1800080D1800080D1800080D180008EB
:100160000D1800080D1800080D1800080D180008DB
:100170000D1800080D1800080D1800080D180008CB
:100180000D1800080D1800080D1800080D180008BB
:100190000D1800080D1800080D1800080D180008AB
:1001A0000D1800080D1800080D1800080D1800089B
:1001B0000D1800080D1800080D1800080D1800088B
:1001C0000D1800080D1800080D1800080D1800087B
:1001D0000D180008E11600080D1800080D18000899
:1001E0000D1800080D1800080D1800080D1800085B
:1001F0000D1800080D1800080D1800080D1800084B
:100200000D1800080D1800080D1800080D1800083A
:100210000D1800080D1800080D1800080D1800082A
:100220000D1800080D1800080D1800080000000047
:100230000D1800080D180008000000000D18000837
:100240000D180008F11600080D1800080D18000818
:100250000D1800080D1800080D1800080D180008EA
:100260000D1800080D1800080D1800080D180008DA
:100270000D1800080D1800080D18000800000000F7
:100280000D1800080D1800080D18000800000000E7
:08029000000000000D18000839
:1002980080F0004002E000BF81F0004142001FBF33
:1002A8005FEA410392EA030F7FEA226C7FEA236C3C
:1002B8006AD04FEA1262D2EB1363C1BFD218414031
:1002C80048404140B8BF5B42192B88BF704710F0C7
:1002D800004F40F4000020F07F4018BF404211F06A
:1002E800004F41F4000121F07F4118BF494292EAD2
:1002F800030F3FD0A2F1010241FA03FC10EB0C00FE
:10030800C3F1200301FA03F100F0004302D549428A
:1003180060EB4000B0F5000F13D3B0F1807F06D337
:1003280040084FEA310102F10102FE2A51D2B1F12F
:10033800004F40EBC25008BF20F0010040EA030024
:100348007047490040EB0000013A28BFB0F5000FA4
:10035800EDD2B0FA80FCACF1080CB2EB0C0200FA5A
:100368000CF0AABF00EBC25052421843BCBFD040A9
:100378001843704792F0000F81F4000106BF80F423
:1003880000000132013BB5E74FEA41037FEA226CE6
:1003980018BF7FEA236C21D092EA030F04D092F0B1
:1003A800000F08BF0846704790EA010F1CBF0020E5
:1003B800704712F07F4F04D1400028BF40F0004042
:1003C800704712F100723CBF00F50000704700F062
:1003D800004343F0FE4040F4000070477FEA226289
:1003E80016BF08467FEA23630146420206BF5FEA5A
:1003F800412390EA010F40F4800070474FF000035A
:1004080004E000BF10F0004348BF40425FEA000C20
:1004180008BF704743F0964301464FF000001CE0C8
:1004280050EA010208BF70474FF000030AE000BF1E
:1004380050EA010208BF704711F0004302D540425C
:1004480061EB41015FEA010C02BF844601460020CE
:1004580043F0B64308BFA3F18053A3F50003BCFAE9
:100468008CF2083AA3EBC25310DB01FA02FC634496
:1004780000FA02FCC2F12002BCF1004F20FA02F29D
:1004880043EB020008BF20F00100704702F1200290
:1004980001FA02FCC2F1200250EA4C0021FA02F2F1
:1004A80043EB020008BF20EADC7070474FF0FF0CF6
:1004B8001CEAD0521EBF1CEAD15392EA0C0F93EAF1
:1004C8000C0F6FD01A4480EA010C400218BF5FEA93
:1004D80041211ED04FF0006343EA501043EA511106
:1004E800A0FB01310CF00040B1F5000F3EBF490000
:1004F80041EAD3715B0040EA010062F17F02FD2A04
:100508001DD8B3F1004F40EBC25008BF20F00100E6
:10051800704790F0000F0CF0004C08BF49024CEAFD
:10052800502040EA51207F3AC2BFD2F1FF0340EA8F
:10053800C250704740F400004FF00003013A5DDC00
:1005480012F1190FDCBF00F000407047C2F1000241
:10055800410021FA02F1C2F1200200FA02FC5FEA2E
:10056800310040F1000053EA4C0308BF20EADC7078
:10057800704792F0000F00F0004C02BF400010F4EA
:10058800000F013AF9D040EA0C0093F0000F01F097
:10059800004C02BF490011F4000F013BF9D041EAB9
:1005A8000C018FE70CEAD15392EA0C0F18BF93EABB
:1005B8000C0F0AD030F0004C18BF31F0004CD8D1E5
:1005C80080EA010000F00040704790F0000F17BF6C
:1005D80090F0004F084691F0000F91F0004F14D0B2
:1005E80092EA0C0F01D142020FD193EA0C0F03D10A
:1005F8004B0218BF084608D180EA010000F000400D
:1006080040F0FE4040F40000704740F0FE4040F4E7
:10061800400070474FF0FF0C1CEAD0521EBF1CEA86
:10062800D15392EA0C0F93EA0C0F69D0A2EB0302A4
:1006380080EA010C49024FEA402037D04FF080533E
:1006480043EA111143EA10130CF000408B4238BF03
:100658005B0042F17D024FF4000C8B4224BF5B1A11
:1006680040EA0C00B3EB510F24BFA3EB510340EA5F
:100678005C00B3EB910F24BFA3EB910340EA9C000D
:10068800B3EBD10F24BFA3EBD10340EADC001B017D
:1006980018BF5FEA1C1CE0D1FD2A3FF650AF8B4221
:1006A80040EBC25008BF20F0010070470CF0004C2E
:1006B8004CEA50207F32C2BFD2F1FF0340EAC25059
:1006C800704740F400004FF00003013A37E792F01A
:1006D800000F00F0004C02BF400010F4000F013A78
:1006E800F9D040EA0C0093F0000F01F0004C02BF73
:1006F800490011F4000F013BF9D041EA0C0195E7DC
:100708000CEAD15392EA0C0F08D142027FF47DAF74
:1007180093EA0C0F7FF470AF084676E793EA0C0F64
:1007280004D14B023FF44CAF08466EE730F0004C62
:1007380018BF31F0004CCAD130F000427FF45CAFF2
:1007480031F000437FF43CAF5FE700BF42000ED2B8
:10075800B2F1FE4F0BD34FF09E03B3EB126209D4F4
:100768004FEA002343F0004323FA02F070474FF0AA
:100778000000704712F1610F01D1420202D14FF01F
:10078800FF3070474FF00000704700BF53B94AB9B7
:10079800002908BF00281CBF4FF0FF314FF0FF3081
:1007A80000F0E2B8ADF1080C6DE904CE0AF0D4FA15
:1007B800DDF804E0DDE9022304B0704700F13401FC
:1007C80091E838009C46A6464CF8045D90E8FF0F77
:1007D800E54600BD90EC210B704700BF80EC210B73
:1007E800704700BF90EC200B704700BF80EC200BD7
:1007F800704700BFD0EC200B704700BFC0EC200B47
:10080800704700BFF0EC0201F0EC0211F0EC02219D
:10081800F0EC0231F0EC0241F0EC0251F0EC026134
:10082800F0EC0271F0EC0281F0EC0291F0EC02A124
:10083800F0EC02B1F0EC02C1F0EC02D1F0EC02E114
:10084800F0EC02F1704700BFE0EC0201E0EC0211AD
:10085800E0EC0221E0EC0231E0EC0241E0EC025174
:10086800E0EC0261E0EC0271E0EC0281E0EC029164
:10087800E0EC02A1E0EC02B1E0EC02C1E0EC02D154
:10088800E0EC02E1E0EC02F1704700BFB0FC01814E
:10089800B0FC0191B0FC01A1B0FC01B1704700BFF0
:1008A800A0FC0181A0FC0191A0FC01A1A0FC01B168
:1008B800704700BFEC4600B52DE900502DE9FF1F39
:1008C8004FF000032DE90C0001A90AF0F7FCDDF850
:1008D80040E012B0704700BFEC4600B52DE900506B
:1008E8002DE9FF1F4FF000032DE90C0001A90AF0C4
:1008F80021FDDDF840E012B0704700BFEC4600B5BE
:100908002DE900502DE9FF1F4FF000032DE90C00E1
:1009180001A90AF02FFDDDF840E012B0704700BFD2
:10092800EC4600B52DE900502DE9FF1F4FF00003FC
:100938002DE90C0001AB0AF0F5FCDDF840E012B03F
:10094800704700BFEC4600B52DE900502DE9FF1FA8
:100958004FF000032DE90C0001AA0AF063FDDDF851
:1009680040E012B0704700BF704700BF844641EABC
:10097800000313F003036DD1403A41D351F8043B0F
:1009880040F8043B51F8043B40F8043B51F8043B61
:1009980040F8043B51F8043B40F8043B51F8043B51
:1009A80040F8043B51F8043B40F8043B51F8043B41
:1009B80040F8043B51F8043B40F8043B51F8043B31
:1009C80040F8043B51F8043B40F8043B51F8043B21
:1009D80040F8043B51F8043B40F8043B51F8043B11
:1009E80040F8043B51F8043B40F8043B51F8043B01
:1009F80040F8043B51F8043B40F8043B403ABDD270
:100A0800303211D351F8043B40F8043B51F8043B11
:100A180040F8043B51F8043B40F8043B51F8043BD0
:100A280040F8043B103AEDD20C3205D351F8043BA0
:100A380040F8043B043AF9D2043208D0D2071CBF6C
:100A480011F8013B00F8013B01D30B880380604695
:100A5800704700BF082A13D38B078DD010F003030B
:100A68008AD0C3F10403D21ADB071CBF11F8013B7B
:100A780000F8013B80D331F8023B20F8023B7BE7CA
:100A8800043AD9D3013A11F8013B00F8013BF9D2F5
:100A98000B7803704B7843708B788370604670478F
:100AA8000348044B834202D0034B03B118477047F5
:100AB8004C0100204C010020000000000548064BB6
:100AC8001B1AD90F01EBA301491002D0034B03B144
:100AD800184770474C0100204C010020000000001E
:100AE80010B5064C237843B9FFF7DAFF044B13B16E
:100AF8000448AFF300800123237010BD4C0100208F
:100B0800000000004CBF000808B5054B1BB10549A3
:100B18000548AFF30080BDE80840FFF7CFBF00BF2E
:100B280000000000500100204CBF0008F0B585B05F
:100B38000024009401940294039401F0A9FD012576
:100B48008DF800508DF801404FF010530193122397
:100B58008DF808308DF809408DF80A5003278DF874
:100B68000B708DF80C408DF80D408DF80E508DF8F7
:100B78000F50684601F0AAFD8DF801504FF0C043B0
:100B880001930F268DF808608DF80A408DF80E4005
:100B9800684601F09BFD02238DF801304FF0405369
:100BA800019310238DF808308DF80E508DF80F4002
:100BB800684601F08BFD8DF80170104B0193684673
:100BC80001F084FD04238DF801300D4B01930E23B1
:100BD8008DF80830684601F079FD05238DF801305D
:100BE8004FF0605301938DF80860684601F06EFD80
:100BF800062001F05BFD05B0F0BD00BF000002302B
:100C08000000043070B58CB000240794089409944F
:100C18000A940B94334BD3F8E02042F00202C3F855
:100C2800E020D3F8E02002F002020192019AD3F802
:100C3800E02042F00102C3F8E020D3F8E02002F0FF
:100C480001020292029AD3F8E02042F48072C3F8BB
:100C5800E020D3F8E02002F480720392039AD3F8DC
:100C6800E02042F08002C3F8E020D3F8E02002F050
:100C780080020492049AD3F8E02042F02002C3F8DC
:100C8800E020D3F8E02002F020020592059AD3F87C
:100C9800E02042F00402C3F8E020D3F8E03003F08B
:100CA80004030693069B104D224643F6014128464D
:100CB80003F054F84FF47053079311230893012657
:100CC800099603230A9307A9284602F033FF0796DB
:100CD800089609940A9407A9284602F02BFF0CB03D
:100CE80070BD00BF004402580004025800B583B02C
:100CF8000B4BD3F8E02042F40012C3F8E020D3F8FD
:100D0800E03003F400130193019B00221146812077
:100D180001F096FC812001F0A3FC03B05DF804FB10
:100D28000044025800B583B01B4BD3F8D82042F0DA
:100D38000102C3F8D820D3F8D83003F00103019397
:100D4800019B002211460B2001F07AFC0B2001F0D8
:100D580087FC002211460C2001F072FC0C2001F0E7
:100D68007FFC002211460D2001F06AFC0D2001F0E5
:100D780077FC002211460E2001F062FC0E2001F0E3
:100D88006FFC002211460F2001F05AFC0F2001F0E1
:100D980067FC03B05DF804FB0044025872B6FEE736
:100DA80000B589B00023019302930393049305933C
:100DB800069307932D482E4A026083600122C26081
:100DC800042101610375427581610377436283627F
:100DD8000321C1624FF480510163436380F83820D6
:100DE8001021C163402101644364826401F056FA12
:100DF800002830D11F4B019306230293039340F23E
:100E0800FF73049304230593002306938DF81D3084
:100E180001A9164800F00AFEF8B9174B01930C23F4
:100E2800029301A9114800F001FEC0B9134B0193C8
:100E38001223029301A90D4800F0F8FD88B9104B60
:100E480001931823029301A9084800F0EFFD50B957
:100E580009B05DF804FBFFF7A1FFFFF79FFFFFF75D
:100E68009DFFFFF79BFFFFF799FF00BF28060020B3
:100E78000060025802003004040060080800900C6A
:100E88001000C01008B51548154B03604FF48003D7
:100E980043604FF4003383600723C360002303617A
:100EA80043614FF0806282614FF00052C261036279
:100EB80043628362C3624FF0804242638363C363C9
:100EC800036443648364C36403654365836506F010
:100ED80085F900B908BDFFF761FF00BFA004002035
:100EE8000038004008B51448144B03604FF48003E1
:100EF8004360002383600322C2604FF000720261E6
:100F08004FF0807242614FF080628261C361036278
:100F180043628362C36243638363C363036443645A
:100F28008364C36403654365836506F057F900B9B4
:100F380008BDFFF733FF00BF28050020003001403F
:100F480000B589B000230493059306930793019392
:100F5800029303931348144A026040F2DF1242607E
:100F680083607C22C2600361836106F0FDFC90B956
:100F78004FF48053049304A90A4806F031FD60B980
:100F880000230193039301A9064806F0C5FD30B973
:100F980009B05DF804FBFFF701FFFFF7FFFEFFF75D
:100FA800FDFE00BFEC020020000C004008B515480B
:100FB800154B03604FF4E133436000238360C36043
:100FC80003610C2242618361C361036243628362ED
:100FD80007F031FA70B900210A4807F0A4FA58B9A5
:100FE8000021084807F0C4FA40B9064807F07CFA1F
:100FF80030B908BDFFF7D2FEFFF7D0FEFFF7CEFEEF
:10100800FFF7CCFE580200200010014000B59FB049
:101018004C2200210BA80AF0B3FE2022002103A8CD
:101028000AF0AEFE022003F029FD002300933A4B9C
:10103800DA6A22F00102DA62DB6A03F00103009344
:10104800364B9A6942F440429A619B6903F44043E3
:101058000093009B314B9B6913F4005FFAD0304B2F
:10106800D3F8F42042F00202C3F8F420D3F8F430A5
:1010780003F002030193019B00230293274B9A6913
:1010880042F440429A619B6903F440430293224B25
:10109800DA6A42F00102DA62DB6A03F001030293C2
:1010A800029B1E4B9B6913F4005FFAD021230B931C
:1010B8004FF480330C930123119302231493159357
:1010C8000422169250221792189319931A930C23FC
:1010D8001B9300231C931D930BA803F001FDB0B9CB
:1010E8003F230393032304930023059308230693C4
:1010F8004023079308934FF4806209920A930421CE
:1011080003A804F053F920B91FB05DF804FBFFF7FA
:1011180045FEFFF743FE00BF000400580048025890
:101128000044025810B5B0B0C024224600216846D9
:101138000AF026FE4FF401220023CDE90023042300
:101148000293122303930323049302230593069324
:1011580007944FF480531893684604F0C3FB08B90A
:1011680030B010BDFFF71AFE08B5FFF7DFFC344BAF
:101178005B6913F4003F13D1BFF34F8FBFF36F8F39
:101188002F4B0022C3F85022BFF34F8FBFF36F8F4E
:101198005A6942F400325A61BFF34F8FBFF36F8F21
:1011A800274B5B6913F4803F27D1254B0022C3F8F6
:1011B8008420BFF34F8FD3F88040C4F34E3000E053
:1011C8001846C4F3C90243F6E07303EA401343EA3E
:1011D80082731B49C1F860321346013A002BF2D1E1
:1011E800431E0028ECD1BFF34F8F4B6943F4803383
:1011F8004B61BFF34F8FBFF36F8F00F02DFBFFF7ED
:1012080005FFFFF78FFFFFF7FDFCFFF76FFDFFF707
:1012180089FD09F01DF9FFF7C3FDFFF733FEFFF75E
:1012280061FEFFF78DFEFFF7C1FE40F2FF724FF03F
:101238000111044801F05EF909F046FDFEE700BF20
:1012480000ED00E02806002082B0074BD3F8F42018
:1012580042F00202C3F8F420D3F8F43003F002039A
:101268000193019B02B070470044025810B588B042
:1012780000230393049305930693079302682D4B69
:101288009A4201D008B010BD0446A3F5E053D3F844
:10129800E02042F08072C3F8E020D3F8E02002F0AA
:1012A80080720092009AD3F8E02042F02002C3F83E
:1012B800E020D3F8E02002F020020192019AD3F84E
:1012C800E02042F00402C3F8E020D3F8E03003F055
:1012D80004030293029B4FF428730393032304939C
:1012E80003A9154802F026FC4FF00061084600F0FB
:1012F8000DFB1248124B03601123436000238360E7
:10130800C3604FF4806303614FF4006343614FF49B
:10131800005383614FF48073C3614FF40033036259
:1013280001F016FC18B9054BE3649C63AAE7FFF7C4
:1013380035FDF8E70060025800140258B005002097
:101348000854025810B58AB0044600230593069342
:101358000793089309930368564A934204D0564A60
:10136800934260D00AB010BD544BD3F8F02042F439
:101378008052C3F8F020D3F8F02002F48052019292
:10138800019AD3F8E02042F00202C3F8E020D3F833
:10139800E03003F002030293029B382305930223F3
:1013A80006930523099305A9454802F0C3FB454860
:1013B800454B03602523436000238360C3604FF4DB
:1013C8008062026143618361C3610362436201F029
:1013D800BFFB10BB3B4BE3679C633C483C4B036043
:1013E80026234360402383600023C3604FF4806258
:1013F800026143618361C3610362436201F0A8FB38
:1014080070B9324BA3679C6300221146232001F078
:1014180017F9232001F024F9A4E7FFF7BFFCD9E767
:10142800FFF7BCFCEDE7254BD3F8E82042F48042F7
:10143800C3F8E820D3F8E82002F480420392039A24
:10144800D3F8E02042F48072C3F8E020D3F8E0300B
:1014580003F480730493049B0A23059302230693E1
:101468000523099305A91B4802F064FB1A481B4B86
:10147800036028234360402383600023C3604FF444
:101488008062026143618361C3610362436201F068
:101498005FFB58B9104BA3679C63002211462420B8
:1014A80001F0CEF8242001F0DBF85BE7FFF776FCCB
:1014B800F0E700BF00300140003800400044025807
:1014C800000402582804002058000240B0030020FD
:1014D800700002400020025838030020100002402B
:1014E80002680F4B9A4200D0704700B583B00D4B8D
:1014F800D3F8E82042F00802C3F8E820D3F8E8302F
:1015080003F008030193019B00221146322001F0E9
:1015180097F8322001F0A4F803B05DF804FB00BF8F
:10152800000C00400044025830B5B9B00446002110
:1015380033913491359136913791C02202A80AF03F
:101548001FFC2268354B9A4201D039B030BD0122C8
:101558000023CDE9022302A804F0C4F9002853D1DE
:101568002F4BD3F8F02042F01002C3F8F020D3F844
:10157800F02002F010020092009AD3F8E02042F026
:101588000202C3F8E020D3F8E03003F0020301932D
:10159800019BC02333930223349300253595369558
:1015A8000723379333A91F4802F0C4FA1E481F4B7C
:1015B8000360292343608560C5604FF4806303613D
:1015C80045618561C5610562456201F0C1FAF0B9FE
:1015D800154BC4F880309C631548164B03602A23CA
:1015E8004360402383600023C3604FF4806202613C
:1015F80043618361C3610362436201F0A9FA48B998
:101608000B4BE3679C63A0E7FFF7C8FBA8E7FFF76E
:10161800C5FBDDE7FFF7C2FBF2E700BF00100140A2
:101628000044025800040258E0010020280002404B
:101638006801002040000240FEE7FEE7FEE7FEE703
:10164800FEE770477047704708B500F033F908BDEA
:1016580008B5024801F0D2FE08BD00BF38030020DB
:1016680008B5024801F0CAFE08BD00BFE00100202D
:1016780008B5024801F0C2FE08BD00BF680100209D
:1016880008B5024801F0BAFE08BD00BF28040020D2
:1016980008B5024801F0B2FE08BD00BFB003002043
:1016A80008B5024805F074FE08BD00BF28050020F3
:1016B80008B5024805F06CFE08BD00BFA004002074
:1016C80008B5034806F001F8024809F00DFB08BD0B
:1016D800EC0200208C06002008B5024802F08BFEC0
:1016E80008BD00BFCC0B002008B5024801F086FEFB
:1016F80008BD00BFB0050020244B1B6803F00F0392
:10170800062B06D8214A136823F00F0343F007037A
:1017180013601F4B1A6842F001021A6000221A6116
:1017280019681C4A0A401A60184B1B6813F0080F06
:1017380006D0164A136823F00F0343F0070313601B
:10174800134B00229A61DA611A62134999621349AC
:10175800D962134919635A639963DA6319645A643D
:10176800196821F4802119601A660E4B1A680E4B0D
:101778001340B3F1005F03D20C4B0122C3F80821D8
:101788000B4B43F2D2021A60704700BF0020005290
:10179800004402587FEDF6EA000202020000FF0151
:1017A800800201010010005C0000FFFF0080005172
:1017B80000400052DFF834D0FFF79EFF0C480D4977
:1017C8000D4A002302E0D458C4500433C4188C4294
:1017D800F9D30A4A0A4C002301E013600432A242FA
:1017E800FBD30AF01FFBFFF7BFFC70470000022085
:1017F800000000204C010020A8C000084C01002077
:1018080000240020FEE70000104B1B780BB90120D4
:10181800704710B504464FF47A70B0FBF3F30C4AE6
:101828001068B0FBF3F000F01FFF68B90F2C01D966
:1018380001200AE0002221464FF0FF3000F000FFAF
:10184800044B1C60002000E0012010BD08000020AF
:10185800040000200C00002010B5032000F0DEFE7C
:1018680003F098FC0F498B69C3F303230E4AD35C3A
:1018780003F01F03D8408B6903F00F03D35C03F018
:101888001F0320FA03F3094A1360094B18600F205D
:10189800FFF7BAFF10B10124204610BD0446FFF738
:1018A800D3FCF9E70044025864BF00080000002098
:1018B80004000020034B1B78034A11680B44136093
:1018C800704700BF0800002090060020014B1868F0
:1018D800704700BF9006002038B50446FFF7F6FFB2
:1018E8000546B4F1FF3F02D0044B1B781C44FFF7B8
:1018F800EDFF401BA042FAD338BD00BF080000200E
:10190800014B1868000C70470010005C034A5368CC
:1019180023EA00030B435360704700BF00040058DC
:1019280010B430300B0A9B0003F00C03C45801F0CC
:101938001F014FF01F0C0CFA01FC24EA0C0CC2F337
:1019480084628A404CEA0202C25010BC704710B44C
:1019580014304B0E9B0003F00403C458C1F3045128
:101968004FF0070C0CFA01FC24EA0C0C8A404CEAF4
:101978000202C25010BC70477047704708B5806BB0
:10198800FFF7FBFF08BD704708B50346806B426D43
:1019980012F0500F30D1436D43F400734365036870
:1019A8001A6812F0080F14D0DA6812F4406F20D1C8
:1019B800DB6813F4005F1CD1436D23F48073436527
:1019C800436D13F4805F14D1436D43F00103436505
:1019D8000FE0DB6813F0030F0BD1436D23F4807322
:1019E8004365436D13F4805F03D1436D43F00103F6
:1019F8004365FFF7C1FF08BD426D12F0100F04D117
:101A0800C26CD26C18469047F5E7FFF7BCFFF2E7C7
:101A180008B5806B436D43F040034365836D43F025
:101A280004038365FFF7AFFF08BD000070B582B0FF
:101A38000023019390F85030012B00F024820446D3
:101A48000D46012380F850300268936813F0040FA4
:101A580009D0436D43F0200343650120002384F837
:101A6800503002B070BD0B68C3F3130100293CD19C
:101A7800C3F3846301219940D3690B43D3612A6876
:101A880069682068FFF74CFF2068836813F0040337
:101A980000D00123826812F0080200D0012252EA25
:101AA80003062ED02268936813F0010F40F0E781F7
:101AB8002B68E868D2F8C010C3F3130621EA0601C0
:101AC80000F01806AE48F0400340C3F313030B437D
:101AD800C2F8C030EA68AB4B9A4200F0A1802B688C
:101AE800002BC0F253810020B8E793FAA3F333B177
:101AF800B3FA83F303F01F0301219940BCE72023C5
:101B0800F8E7AA682968FFF722FF9F4B1B6803F0D4
:101B18007043B3F1805F0BD02268D36813F0100FC5
:101B28003BD16B69D268C2F382025200934006E04F
:101B38006B692268D268C2F3820252009340296915
:101B4800042938D02268286802F1600C5CF821204A
:101B580002F0004200F0F840034313434CF82130F0
:101B6800236828696A7E012A1FD03146603353F8FA
:101B7800202022F000420A4343F8202021682A69E5
:101B88002B7E012B14D00B6923F4F04302F01F02C3
:101B980006FA02F213430B6184E76B69D268920874
:101BA80002F0040252009340C9E74FF00041DDE71C
:101BB8004FF40066E7E72268136E03F0F8432968DC
:101BC800B3EB816F1DD02268536E03F0F843296888
:101BD800B3EB816F1AD02268936E03F0F84329683B
:101BE800B3EB816F17D02268D36E03F0F8432968EE
:101BF800B3EB816F7FF456AFD36E23F00043D36607
:101C080050E7136E23F000431366DCE7536E23F0AE
:101C180000435366DFE7936E23F000439366E2E7E1
:101C280020682B68C3F313063EBB9A0E013202F0FC
:101C38001F02092A8CBF00220122002A55D05EBB50
:101C4800990E0131890601F0F8418EBB4FEA936C79
:101C58000CF1010C0CF01F0C012202FA0CF21143DA
:101C6800AEBB9B0E013303F01F0303EB43031B05BD
:101C78001943AA68FFF76BFE31E793FAA3F24AB15A
:101C8800B2FA82F2013202F01F02092A8CBF002246
:101C98000122D2E72022F5E793FAA3F131B1B1FA94
:101CA80081F10131890601F0F841CEE72021F8E7FA
:101CB80093FAA3F24AB1B2FA82F2013202F01F0299
:101CC8004FF0010C0CFA02F2C9E72022F5E793FA6B
:101CD800A3F343B1B3FA83F3013303F01F0303EB18
:101CE80043031B05C4E72023F6E7E6B9990E013143
:101CF800890601F0F84116BB4FEA936C0CF1010C10
:101D08000CF01F0C012202FA0CF2114336BB9B0E99
:101D1800013303F01F0303EB43031E3B1B0543F092
:101D280000731943A5E793FAA3F131B1B1FA81F130
:101D38000131890601F0F841DDE72021F8E793FA3F
:101D4800A3F24AB1B2FA82F2013202F01F024FF056
:101D5800010C0CFA02F2D8E72022F5E793FAA3F374
:101D68005BB1B3FA83F3013303F01F0303EB4303BF
:101D78001E3B1B0543F00073D3E72023F3E700BFA6
:101D8800FFFF0F000000FF470010005C22683F497A
:101D98003F48824218BF8A420CBF0121002118D156
:101DA8003C4EB56805F0E07CA9B13849886810F068
:101DB800010000D001203649896811F0010100D0E6
:101DC800012101430CD0636D43F0200363650120BA
:101DD80044E6314EE5E73149896811F0010FF2D147
:101DE8002F498B4207D02F498B4226D02E498B4250
:101DF80034D0002032E615F4000FF4D1274B9A4274
:101E080001D000202AE64CF40003B26822F0E07208
:101E18001343B360254B1B689B09254AA2FB032388
:101E28009B0901335B00019302E0019B013B019395
:101E3800019B002BF9D1002010E615F0807FD5D149
:101E4800164B9A4201D0002008E64CF08073B26825
:101E580022F0E0721343B3600020FFE515F4800F11
:101E68000FD10E4B9A4201D00020F7E54CF48003C5
:101E7800B26822F0E0721343B3600020EEE5002060
:101E8800ECE50020EAE50220EBE500BF0020024077
:101E980000210240002302400063025800600258FB
:101EA800000084CB000052C70000B8CF0400002017
:101EB800632D3E0538B503689A6812F0010F56D1B4
:101EC800044699682B4A114209D0436D43F0100328
:101ED8004365836D43F001038365012048E09968F9
:101EE800254A0A4042F001029A60FFF7EFFC0546D6
:101EF80023682249224A934218BF8B420DD102F52A
:101F08000072926802F01F021D498B4207D01946E1
:101F1800994207D032B100202AE01A4AF1E7A1F528
:101F28008071F5E723681A6812F0010F1DD19A68CD
:101F380012F0010F05D199680F4A0A4042F00102D8
:101F48009A60FFF7C3FC401B0228EBD923681B6883
:101F580013F0010FE6D1636D43F010036365A36DC1
:101F680043F00103A365012002E0002000E0002007
:101F780038BD00BF3F000080C0FFFF7F0020024047
:101F88000021024000630258F8B504460E46174681
:101F980000683D4A3D4B984218BF90421AD103F55C
:101FA80000739D6805F01F05806810F0040F67D165
:101FB80094F85030012B65D0012384F85030052D5A
:101FC80018BF002D08D0092D06D0002384F8503002
:101FD800012056E02E4BE4E72046FFF76BFF002870
:101FE8004AD1626DA0F60273134043F480736365AF
:101FF8002368264A934239D01A46934200D01DB925
:10200800636D23F480136365636D13F4805F30D0D0
:10201800A36D23F00603A365E36C1E4ADA63E36C41
:102028001D4A1A64E36C1D4ADA6423681C221A608C
:10203800002384F850302268536843F0100353603B
:102048002168E36ACA6822F003021343CB6021685F
:102058003B4632464031E06C00F04CFF2268916804
:102068000F4B0B4043F0040393600AE0A2F5807223
:10207800C3E70023A365CFE7002384F8503000E0CE
:102088000220F8BD0220FCE70020024000210240A7
:10209800006302589119000885190008191A0008E8
:1020A800C0FFFF7F38B504460268936813F0020347
:1020B80000D00123916811F0010F37D0002B37D1E0
:1020C800936803F00D03012B09D0636D43F01003EF
:1020D8006365A36D43F00103A365012027E09168C0
:1020E800144B0B4043F002039360236803221A60E9
:1020F800FFF7ECFB054623689B6813F0010F13D02C
:10210800FFF7E4FB401B0228F5D923689B6813F00E
:10211800010FF0D0636D43F010036365A36D43F0C6
:102128000103A365012002E0002000E0002038BD83
:102138000020FCE7C0FFFF7F38B5044603684F491D
:102148004F4A934218BF8B4223D14E4B9B6813F4DE
:10215800403F14BF012300234BB303F071FA054637
:102168006368B3F5003F1CD0B3F5403F1DD0B3F50D
:10217800803F16D0FFF7C4FB41F20303984258D8BA
:10218800414B9D424FD92268936843F48073936012
:1021980038BD3E4B9B6813F4403F14BF0123002316
:1021A800DAE71B0CB5FBF3F5E4E78508E2E74FF443
:1021B8000020002104F03CFC05466368B3F5101FBD
:1021C8002DD022D8B3F5E01F27D004D9B3F5001FCE
:1021D800D0D14509CEE7B3F5801F0DD006D9B3F5A8
:1021E800A01F09D0B3F5C01F06D0C3E7B3F5002F71
:1021F80002D0B3F5402F04D19B0C5B00B5FBF3F57F
:10220800B8E7B3F5802FF7D0B4E7B3F5201F08D0AF
:10221800B3F5301FAED1050AACE70509AAE7850971
:10222800A8E7C509A6E72268936823F4807393603A
:10223800AEE7174B9D4205D82268936823F4407394
:102248009360A5E7134B9D4207D82268936823F44F
:10225800407343F4807393609AE70F4B9D4207D80D
:102268002268936823F4407343F4007393608FE704
:102278002268936843F44073936089E70020024022
:102288000021024000230240002D31010063025862
:1022980021BCBE0041787D0181F0FA0230B583B0DF
:1022A80000230193002800F00A810446436DEBB136
:1022B80023689A6812F0005F03D09968814A0A403F
:1022C8009A6023689A6812F0805F1CD199687E4AE8
:1022D8000A4042F080529A607C4B1B689B097C4AFA
:1022E800A2FB03239B090133019309E0FEF7BEFF1C
:1022F8000023A36584F85030DAE7019B013B019382
:10230800019B002BF9D12268936813F0805F40F09D
:102318009980636D43F010036365A36D43F0010377
:10232800A3650125936813F0040300D00123616DB0
:1023380011F0100F40F0BB80002B40F0B880636DA7
:1023480023F4817343F002036365936813F0010F6C
:102358001ED16049604B9A4218BF8A420CBF0122C5
:10236800002271D1896811F0010100D001215A4B76
:102378009B6813F0010300D001230B4308D1002A06
:1023880068D0564963688A6822F47C1213438B60CC
:10239800FFF7B6FA41F20303984202D9A368102B5B
:1023A8005AD0627D236B43EA4233A2681343227FEB
:1023B80043EA0243227F012A59D0626A22B102F419
:1023C8007872A16A0A4313432168C868444A0240E4
:1023D8001A43CA6021688A6812F0040200D00122F8
:1023E8008B6813F0080300D0012313431BD1227D0F
:1023F800E36A43EA8232C8683A4B03401343CB602E
:1024080094F83830012B37D02268136923F0010380
:1024180013612268136923F07043616B0B431361E6
:102428002046FFF789FEE368012B37D02268136B3B
:1024380023F00F031363636D23F0030343F00103D9
:10244800636539E000256DE7274B9B6813F0010FA2
:102458009ED194E7254995E7617D226B42EA413296
:102468001343227F43EA024343F00C03A2E7226AA4
:10247800013A43EA4243A0E7206802691C4B134033
:10248800E26B511E226C42EA0142616C0A43A16C64
:102498000A43134343F001030361BAE721680B6B56
:1024A80023F00F03A269013A13430B63C3E7636D7B
:1024B80043F0100363650125284603B030BD0125AC
:1024C800FAE700BFC0FFFF5FC0FFFF6F04000020F6
:1024D800632D3E05002002400021024000230240F7
:1024E80003C0F0FFFCBFFFFF006002580063025802
:1024F8001EF800FC70B582B00023019390F85030AC
:10250800012B43D004460D461646012380F850306F
:10251800FFF7C8FD002830D1626D1D4B134043F012
:102528000203636521688A681A4B134005F48035F5
:1025380006F0804645EA0602134343F000438B60E9
:1025480023689B68002B06DB636D23F0030343F0CD
:102558000103636515E0019B01330193019A0E4B5A
:102568009A42EDD3636D23F0120343F010036365C1
:10257800002384F85030012006E0636D43F0100317
:102588006365002384F8503002B070BD0220FBE779
:10259800FDEEFFFFC0FFFE3F00F8C325002807DB64
:1025A80000F01F02400901239340024A42F82030FC
:1025B800704700BF00E100E0002804DB0901C9B250
:1025C800044B1954704700F00F000901C9B2024BBF
:1025D8001954704700E400E014ED00E000B500F085
:1025E8000700C0F1070CBCF1040F28BF4FF0040C22
:1025F800031D062B0FD9C31E4FF0FF3E0EFA0CF039
:1026080021EA000199400EFA03FE22EA0E0241EA8D
:1026180002005DF804FB0023EEE700000649CB68E2
:1026280023F4E0631B041B0C000200F4E060034386
:10263800024A1A43CA60704700ED00E00000FA053C
:1026480010B50446054BD868C0F30220FFF7C6FF53
:1026580001462046FFF7B0FF10BD00BF00ED00E0C7
:1026680008B5FFF79BFF08BD0138B0F1807F0BD29A
:102678004FF0E0235861054AF02182F8231000202A
:10268800986107221A6170470120704700ED00E049
:10269800BFF35F8F044B5A6A22F480325A620022D9
:1026A800C3F89420704700BF00ED00E040F001003F
:1026B800054BC3F894005A6A42F480325A62BFF359
:1026C8004F8FBFF36F8F704700ED00E04278164BD5
:1026D800C3F898200378FBB14368134AC2F89C30CA
:1026E800017BC37A1B0643EA0173817A43EAC1433B
:1026F800417B43EA8143817B43EA4143C17B43EA0F
:102708000143417A43EA0123017A43EA410301780C
:102718000B43C2F8A0307047034B0022C3F89C203B
:10272800C3F8A020704700BF00ED00E0F0B4876D4B
:102738000468664E664DAC4218BFB44242D01835A4
:10274800AC423FD01835AC423CD01835AC4239D0F9
:102758001835AC4236D01835AC4233D01835AC42B7
:1027680030D005F55675AC422CD01835AC4229D07E
:102778001835AC4226D01835AC4223D01835AC42B7
:1027880020D01835AC421DD01835AC421AD01835B7
:10279800AC4217D04F4DAC4214D01435AC4211D0D6
:1027A8001435AC420ED01435AC420BD01435AC42C3
:1027B80008D01435AC4205D01435AC4202D01435DB
:1027C800AC4207D1446E856E6560C46E14B1046F67
:1027D800456F656004683D4E3D4DAC4218BFB4423C
:1027E80052D01835AC424FD01835AC424CD01835C1
:1027F800AC4249D01835AC4246D01835AC4243D02B
:102808001835AC4240D005F55675AC423CD0183569
:10281800AC4239D01835AC4236D01835AC4233D03A
:102828001835AC4230D01835AC422DD01835AC42F2
:102838002AD01835AC4227D0264E274DAC4218BFB7
:10284800B44211D0254DAC420ED01435AC420BD059
:102858001435AC4208D01435AC4205D01435AC421E
:1028680002D01435AC4224D1C46D04F01F050124F4
:10287800AC407C60046863608368402B20D00368A8
:1028880099600368DA6014E0C46D04F01F0C3F24FB
:1028980004FA0CF4BC6005682C6824F480242C60CD
:1028A800046863608368402B05D0036899600368F7
:1028B800DA60F0BC704703689A600368D960F8E78B
:1028C80003689A600368D960F3E700BF100002400C
:1028D80028000240085402581C5402583054025828
:1028E80003682749274A934218BF8B422FD01832D2
:1028F80093422CD01832934229D01832934226D0D2
:102908001832934223D01832934220D0183293427F
:102918001DD002F55672934219D01832934216D040
:102928001832934213D01832934210D0183293427F
:102938000DD0183293420AD01832934207D0183279
:10294800934204D023F0FF038365806D704710B471
:10295800D9B210390C4AA2FB0142C2F302120B4C45
:10296800A25CC2655F2906D9094A1A400432826509
:10297800806D10BC7047064A1A408265F8E700BFB0
:102988001000024028000240ABAAAAAA74BF00089F
:1029980000FCFFFF83699BB9836A012B0AD0022BD5
:1029A80002D00BB100207047C36A13F0807F2AD190
:1029B80000207047C36AB3F1C07F26D0002070475B
:1029C800B3F5005F0AD0836A022B26D9032B26D1E0
:1029D800C36A13F0807F24D100207047836A032BD9
:1029E80003D8DFE803F01404140A00207047C36A10
:1029F80013F0807F0DD100207047C36AB3F1C07F08
:102A080009D000207047012070470120704701203D
:102A1800704701207047012070470120704700204F
:102A2800704701207047000003682149214A9342FA
:102A380018BF8B4227D01432934224D014329342C9
:102A480021D0143293421ED0143293421BD0143238
:102A5800934218D01432934215D0DAB2103A16497C
:102A6800A1FB0212120915491944A8291ED9144BB1
:102A780013449B000366134B436602F01F020123B5
:102A8800934083667047DBB2083B0F4AA2FB0323DF
:102A98000E4A02EB1312920002660D4A4266C3F315
:102AA8000413012202FA03F3836670470832DEE753
:102AB800085402581C540258ABAAAAAAF0FBFDBF3E
:102AC8000082001080080240CDCCCCCC00960016C5
:102AD8008058025801794A1E072A2BD830B4036857
:102AE800154D164CA34218BFAB4218D01434A3425C
:102AF80015D01434A34212D01434A3420FD0143486
:102B0800A3420CD01434A34209D01434A34206D0F3
:102B18000B4B0B449B00C3660A4B036705E00A4B4B
:102B28000B449B00C366094B03670123934043672B
:102B380030BC7047704700BF085402581C540258F4
:102B48003F820010400902403F9600164059025843
:102B580070B50446FEF7BAFE002C00F0B6810546B3
:102B680023685349534A934218BF8B420CBF012133
:102B7800002150D0183293424DD0183293424AD097
:102B88001832934247D01832934244D018329342B5
:102B980041D0183293423ED002F5567293423AD051
:102BA8001832934237D01832934234D018329342B5
:102BB80031D0183293422ED0183293422BD018328B
:102BC800934228D01832934225D03B493B4A93423E
:102BD80018BF8B4200F03181394A934200F02D81B1
:102BE8001432934200F029811432934200F0258177
:102BF8001432934200F021811432934200F01D8177
:102C08001432934200F0198140236365032384F84A
:102C1800353001204AE0022284F83520002284F869
:102C2800342079BB274A93422CD01832934229D0BA
:102C38001832934226D01832934223D01832934246
:102C480020D0183293421DD002F55672934219D003
:102C58001832934216D01832934213D01832934246
:102C680010D0183293420DD0183293420AD018323D
:102C7800934207D01832934204D01A6822F0010216
:102C88001A6003E01A6822F001021A6023681A68C1
:102C980012F0010F18D0FEF719FE431B052BF5D9CA
:102CA80020236365032384F83530012070BD00BFFD
:102CB8001000024028000240085402581C540258D0
:102CC80030540258400002401A6881491140A268F5
:102CD800E06802432069024360690243A069024335
:102CE800E0690243206A02430A43616A042900F04A
:102CF80099807849086878490140B1F1005F11D39B
:102D08006168A1F12905A1F13F00032888BF052DBD
:102D180006D9A1F14700012802D94F39032901D862
:102D280042F480121A602668756925F00705636AFF
:102D38001D43042B08D1A36A1D43E36A23B120462F
:102D4800FFF728FE002872D175612046FFF7C8FDFD
:102D5800E36D03F01F023F239340836023685F49BC
:102D68005F4A934218BF8B4242D0183293423FD0F9
:102D7800183293423CD01832934239D018329342D9
:102D880036D01832934233D01832934230D002F5FD
:102D9800567293422CD01832934229D0183293425B
:102DA80026D01832934223D01832934220D01832BA
:102DB80093421DD0183293421AD01832934217D03A
:102DC800484A934214D01432934211D01432934299
:102DD8000ED0143293420BD01432934208D01432DE
:102DE800934205D01432934202D01432934213D145
:102DF8002046FFF719FEA368802B59D0236E22794D
:102E08001A60636EA26E5A606368013B072B52D941
:102E18000023E3662367636700206065012384F865
:102E2800353043E7E16A206B01430A4361E74023F9
:102E38006365012084F8350038E7022284F83520DC
:102E4800002284F834201A6827491140A268402AD1
:102E58002CD0802A27D00022E06842EAD0022069DC
:102E680042EAD002606942EAD002A06942EAD0028E
:102E7800E06942EAD002206A42EA10120A431A6064
:102E880022681A4B13441A4AA2FB03231B099B000E
:102E9800E3652046FFF724FDE26D02F01F010122E1
:102EA8008A4042605AE74FF48042D5E71022D3E7C0
:102EB80000236360A2E72046FFF70CFEE36E0022C2
:102EC8001A60236F626F5A60A6E70120EEE600BF22
:102ED8003F8010FE0010005C0000FFFF1000024061
:102EE80028000240085402580F00FEFFF8ABFDA767
:102EF800CDCCCCCC002800F03E8170B5044690F8CB
:102F08003400012800F03981012084F8340094F855
:102F18003500C0B2012807D04FF400636365002371
:102F280084F83430012070BD022084F83500002078
:102F380060652068924E934DA84218BFB0422FD0CA
:102F48001835A8422CD01835A84229D01835A842DF
:102F580026D01835A84223D01835A84220D01835D5
:102F6800A8421DD005F55675A84219D01835A842B3
:102F780016D01835A84213D01835A84210D01835E5
:102F8800A8420DD01835A8420AD01835A84207D053
:102F98001835A84204D0056825F00105056003E04E
:102FA800056825F0010505602046FFF7BFFB23688B
:102FB8007349744A934218BF8B4238D018329342EF
:102FC80035D01832934232D0183293422FD018326B
:102FD80093422CD01832934229D01832934226D0EB
:102FE80002F55672934222D0183293421FD01832FB
:102FF80093421CD01832934219D01832934216D0FB
:103008001832934213D01832934210D01832934298
:103018000DD01A6822F00E0242F00A021A60236CE0
:1030280093B12268136843F0040313600CE01A6834
:1030380022F01E0242F016021A60236C23B12268A5
:10304800136843F00803136023684D494D4A9342BF
:1030580018BF8B4242D0183293423FD01832934265
:103068003CD01832934239D01832934236D01832B5
:10307800934233D01832934230D002F556729342BD
:103088002CD01832934229D01832934226D01832C5
:10309800934223D01832934220D0183293421DD045
:1030A800183293421AD01832934217D0364A9342B4
:1030B80014D01432934211D0143293420ED01432E9
:1030C80093420BD01432934208D01432934205D065
:1030D8001432934202D0143293420ED1236E1A68EE
:1030E80012F4803F03D01A6842F480721A60E36ECB
:1030F8001BB11A6842F480721A6023682049214A79
:10310800934218BF8B4230D0183293422DD01832D8
:1031180093422AD01832934227D01832934224D0AF
:103128001832934221D0183293421ED002F55672BB
:1031380093421AD01832934217D01832934214D0BF
:103148001832934211D0183293420ED0183293425B
:103158000BD01832934208D01832934205D01A681F
:1031680042F001021A600020DDE61A6842F001020E
:103178001A600020D7E6012070470220D3E600BF7E
:10318800100002402800024008540258002800F0AD
:10319800288108B5024690F83530DBB2022B03D0FF
:1031A80080234365012008BD0368904890498B42FD
:1031B80018BF83420CBF0120002065D018318B4214
:1031C80062D018318B425FD018318B425CD01831F5
:1031D8008B4259D018318B4256D018318B4253D07C
:1031E80001F556718B424FD018318B424CD01831B3
:1031F8008B4249D018318B4246D018318B4243D08C
:1032080018318B4240D018318B423DD018318B4257
:103218003AD0196821F00E0119601368734874498F
:103228008B4218BF83426AD072498B4267D01831EB
:103238008B4264D018318B4261D018318B425ED0FA
:1032480018318B425BD018318B4258D001F556713A
:103258008B4254D018318B4251D018318B424ED00A
:1032680018318B424BD018318B4248D018318B42E1
:1032780045D018318B4242D018318B423FD0196863
:1032880021F0010119603EE0042182F8351080BB6D
:10329800584A93422DD0183293422AD0183293427A
:1032A80027D01832934224D01832934221D01832B2
:1032B80093421ED002F5567293421AD018329342A6
:1032C80017D01832934214D01832934211D01832C2
:1032D80093420ED0183293420BD01832934208D042
:1032E8001832934205D01A6822F001021A600020B1
:1032F80059E71A6822F001021A60002053E719689A
:1033080021F0010119601368384839498B4218BF08
:10331800834242D018318B423FD018318B423CD087
:1033280018318B4239D018318B4236D018318B4244
:1033380033D018318B4230D001F556718B422CD0E6
:1033480018318B4229D018318B4226D018318B4244
:1033580023D018318B4220D018318B421DD0183120
:103368008B421AD018318B4217D023498B4214D084
:1033780014318B4211D014318B420ED014318B4250
:103388000BD014318B4208D014318B4205D0143144
:103398008B4202D014318B4217D1116E0B6823F483
:1033A80080730B60906DD36D03F01F0101238B4078
:1033B8004360536E916E5960D36E33B1196821F42E
:1033C80080711960136F516F5960012382F835308D
:1033D800002382F83430136D2BB110469847002033
:1033E800E1E6012070470020DDE600BF1000024042
:1033F800280002404000024008540258F0B583B04B
:103408000446002301937D4B1D687D4BA3FB0535C6
:10341800AD0A876D3E68D7F800C0036879497A48D5
:10342800834218BF8B420CBF0120002061D0774A2D
:1034380093425ED0183293425BD01832934258D0F0
:103448001832934255D01832934252D018329342D0
:103458004FD002F5567293424BD01832934248D05F
:103468001832934245D01832934242D018329342D0
:103478003FD0183293423CD01832934239D0183298
:10348800934236D06249634A934218BF8B4212D0A6
:10349800614A93420FD0143293420CD014329342B3
:1034A80009D01432934206D01432934203D0143216
:1034B800934240F061821A68E16D01F01F01042017
:1034C800884010EA0C0F00F0A78212F0040F00F0F9
:1034D800A382786012F4004F00F05A8212F4803F01
:1034E80040F05082A36C002B00F04682204698479B
:1034F80042E2E26D02F01F0108228A40324241D0C6
:1035080070BB424A93422BD01832934228D01832CB
:10351800934225D01832934222D0183293421FD0BA
:10352800183293421CD002F55672934218D01832C2
:10353800934215D01832934212D0183293420FD0CA
:10354800183293420CD01832934209D01832934261
:1035580006D01832934203D01A68C2F3C00202E0C0
:103568001A68C2F380026AB11A6822F004021A606B
:10357800E36D03F01F0208239340BB60636D43F0C3
:1035880001036365E26D02F01F0226FA02F313F0ED
:10359800010F47D023681B481B498B4218BF834241
:1035A8003CD018318B4239D018318B4236D0183183
:1035B8008B4233D018318B4230D018318B422DD00A
:1035C80018318B422AD001F556718B4226D018311A
:1035D8008B4223D018318B4220D018318B421DD01A
:1035E80018318B421AD018318B4217D018318B42C0
:1035F80014D018318B4211D01B6813E0040000204E
:10360800B5814E1B100002402800024040000240D5
:10361800085402581C540258305402585B6913F07D
:10362800800F3BD1E36D03F01F03042202FA03F37A
:1036380033423FD02268964896498A4218BF824250
:1036480034D018318A4231D018318A422ED01831FC
:103658008A422BD018318A4228D018318A4225D084
:1036680018318A4222D001F556718A421ED018318B
:103678008A421BD018318A4218D018318A4215D094
:1036880018318A4212D018318A420FD018318A4232
:103698000CD018318A4209D013680BE001239340FB
:1036A800BB60636D43F002036365BBE7126812F009
:1036B800020F3DD1E36D03F01F03102202FA03F35A
:1036C80033425FD02268724872498A4218BF8242E8
:1036D80034D018318A4231D018318A422ED018316C
:1036E8008A422BD018318A4228D018318A4225D0F4
:1036F80018318A4222D001F556718A421ED01831FB
:103708008A421BD018318A4218D018318A4215D003
:1037180018318A4212D018318A420FD018318A42A1
:103728000CD018318A4209D01268C2F3800208E02E
:10373800BB60636D43F004036365BBE71268C2F3C3
:10374800C002FAB1BB6023681A6812F4802F0DD04A
:103758001B6813F4002F04D1236C9BB120469847B3
:1037680010E0A36C73B1204698470BE01A6812F476
:10377800807F03D11A6822F008021A60236C0BB10B
:1037880020469847E36D03F01F03202202FA03F353
:10379800334200F0938022683D483E498A4218BF70
:1037A80082422ED018318A422BD018318A4228D032
:1037B80018318A4225D018318A4222D018318A42DB
:1037C8001FD018318A421CD001F556718A4218D090
:1037D80018318A4215D018318A4212D018318A42DB
:1037E8000FD018318A420CD018318A4209D01831CA
:1037F8008A4206D018318A4203D01268C2F34002C6
:1038080002E01268C2F30012002A57D0BB6094F895
:103818003530DBB2042B0ED023681A6812F4802FDF
:103828003AD01B6813F4002F2DD1636C002B45D0C0
:103838002046984742E02268136823F01603136075
:103848002268536923F080035361236CBBB122685B
:10385800136823F008031360E36D03F01F023F238E
:103868009340BB60012384F83530002384F834305A
:10387800236D002B00F08080204698477CE0A36CE5
:10388800002BE4D1E8E7E36BC3B12046984715E085
:1038980010000240280002401A6812F4807F09D103
:1038A8001A6822F010021A60012384F835300023C8
:1038B80084F83430E36B0BB120469847636D002BD6
:1038C8005AD0636D13F0010F52D0042384F83530B9
:1038D80023689649964A934218BF8B422FD01832D4
:1038E80093422CD01832934229D01832934226D0D2
:1038F8001832934223D01832934220D01832934280
:103908001DD002F55672934219D01832934216D040
:103918001832934213D01832934210D0183293427F
:103928000DD0183293420AD01832934207D0183279
:10393800934204D01A6822F001021A6003E01A6860
:1039480022F001021A60019B01330193AB4204D8B3
:1039580023681B6813F0010FF5D123681B6813F067
:10396800010F0BD0032384F83530002384F834305A
:10397800E36C0BB12046984703B0F0BD012384F8EF
:103988003530F2E7236C002BF6D020469847F3E752
:1039980012F0200F3AD123686449654A934218BF50
:1039A8008B422FD0183293422CD01832934229D010
:1039B8001832934226D01832934223D018329342B9
:1039C80020D0183293421DD002F55672934219D076
:1039D8001832934216D01832934213D018329342B9
:1039E80010D0183293420DD0183293420AD01832B0
:1039F800934207D01832934204D01A6822F0040286
:103A08001A6003E01A6822F008021A60236C002B7F
:103A1800B2D020469847AFE70220884010EA0C0F42
:103A280060D012F0020F5DD0786012F4004F0ED013
:103A380012F4803F05D1636C002B9DD02046984737
:103A48009AE7E36B002B97D02046984794E712F04B
:103A5800200F40D123683549354A934218BF8B421D
:103A68002FD0183293422CD01832934229D01832D2
:103A7800934226D01832934223D01832934220D052
:103A8800183293421DD002F55672934219D018325B
:103A9800934216D01832934213D01832934210D062
:103AA800183293420DD0183293420AD018329342FA
:103AB80007D01832934204D01A6822F00A021A601A
:103AC80003E01A6822F014021A60012384F83530E2
:103AD800002384F83430E36B002B3FF44DAF2046CD
:103AE800984749E7082000FA01F111EA0C0F3FF462
:103AF80043AF12F0080F3FF43FAF1A6822F00E02EE
:103B08001A60E36D03F01F03012202FA03F37B60DE
:103B1800626584F83520002384F83430E36C002B88
:103B28003FF42AAF2046984726E700BF100002401E
:103B38002800024070B582B000236EE085685E0000
:103B48000324B44025EA0405CC68B4402C438460BF
:103B5800456825EA0C054C68C4F300149C402C43C6
:103B680044606DE0DD08083550F8254003F0070C87
:103B78004FEA8C0C4FF00F0E0EFA0CFE24EA0E0ED4
:103B88000C6904FA0CF444EA0E0440F825406FE08E
:103B9800092400E0002404FA0EF42C430CF1020C72
:103BA8006B4D45F82C404FF0B0442568D44325EAC6
:103BB8000206D1F804C01CF4801F01D042EA0506B1
:103BC8004FF0B0452E606D6804EA0506D1F804C0D0
:103BD8001CF4001F01D042EA05064FF0B0456E60A4
:103BE800D5F8845004EA0506D1F804C01CF4003F57
:103BF80001D042EA05064FF0B045C5F88460D5F813
:103C080080502C404E6816F4803F01D042EA0504EB
:103C18004FF0B042C2F8804001330A6832FA03F428
:103C280000F093804FF0010C0CFA03FC1CEA02022E
:103C3800F2D04C6804F00304013C012C7FF67EAFFF
:103C48004C6804F00304032C0CD0C4685D004FF0EA
:103C5800030C0CFA05FC24EA0C0C8C68AC4044EA12
:103C68000C04C4604C6804F00304022C3FF47AAFDF
:103C780004684FEA430E4FF0030C0CFA0EFC24EADA
:103C88000C0C4C6804F0030404FA0EF444EA0C0427
:103C980004604C6814F4403FBED02E4CD4F8F45065
:103CA80045F00205C4F8F450D4F8F44004F00204D6
:103CB8000194019C4FEA930C0CF10205244C54F832
:103CC800255003F0030E4FEA8E0E0F2404FA0EF46B
:103CD80025EA0405204CA0423FF45CAF04F580645B
:103CE800A04222D004F58064A04220D004F580646C
:103CF800A0421ED004F58064A0421CD004F5806464
:103D0800A0421AD004F58064A04218D004F580645B
:103D1800A04216D004F58064A04214D004F5806453
:103D2800A0423FF435AF0A2435E7012433E70224E3
:103D380031E703242FE704242DE705242BE7062485
:103D480029E7072427E7082425E702B070BD00BF4C
:103D58000004005800440258000002580AB181616A
:103D680070470904816170472DE9F04383B0D0F8AA
:103D7800008001EBC10300EB83031A6DDB6C9A42F0
:103D880054D807460C469B1A01EBC10200EB82028D
:103D9800526C9A4200D31A4602F103094FEA990974
:103DA80015E006F103094FEA990904EBC40507EB8E
:103DB8008505A96C3B7B0093B3B2E2B2404604F0A0
:103DC80035FFAB6C3344AB642B6D33442B6508EB88
:103DD800441303F510639B699BB24B4512D304EB64
:103DE800C40307EB83031A6DDB6C9A420AD24BB10A
:103DF8009B1A04EBC40207EB8202566C9E42D0D396
:103E08001E46CEE704EBC40307EB8307FA6C3B6D51
:103E18009A420FD804F00F040122A240D8F834388F
:103E280023EA0203C8F83438002000E0012003B078
:103E3800BDE8F0830020FAE770B58AB0002800F0EA
:103E480097800546046890F8BD343BB3032385F892
:103E5800BD34E36B13F4807F01D10023EB60286845
:103E680004F09AFC2C4654F8106BEC460FCCACE8E6
:103E78000F000FCCACE80F0094E803008CE80300B7
:103E88002B1D0ECB304604F0C1FB044658B102236B
:103E980085F8BD34012420460AB070BD80F8BC34D2
:103EA80006F0ACFBD2E70021286805F0D2F82346DB
:103EB80016E003EBC30205EB8202012182F83D10F4
:103EC80082F83C30A2F85630002182F84010516444
:103ED800916403EBC30205EB8202D1640133DBB2C8
:103EE80069688B42E5D316E004EBC40305EB830352
:103EF800002283F87D2283F87C4283F88022C3F86D
:103F08008422C3F8882204EBC40305EB8303C3F8B7
:103F18008C220134E4B2A142E6D82C4654F8106B46
:103F2800EC460FCCACE80F000FCCACE80F0094E8DF
:103F380003008CE803002B1D0ECB304604F088FCF0
:103F4800044660B9002385F83830012385F8BD346C
:103F58006B6A012B08D0286805F03AF89BE7022322
:103F680085F8BD34012496E7284600F071FDF2E794
:103F7800012490E7036890F8BC24012A1AD010B5F0
:103F88000446012280F8BC24DA6B12F4807F02D147
:103F9800826A012A09D0206804F0F8FB206805F03D
:103FA80009F8002084F8BC0410BD9A6B42F48032F2
:103FB8009A63F0E70220704770B504460D46006822
:103FC800066C00EB411303F530639A68E168012938
:103FD80011D038498E4256D03DB905EBC50304EBE4
:103FE8008303D3F88C32002B5ED0E9B2204606F06A
:103FF80067FB002070BD12F0080F09D02E498E42D1
:10400800F7D912F4004FF4D04FF400429A60F0E769
:1040180012F0200F02D020229A60EAE712F0280F4F
:10402800E7D125498E4206D912F4004F03D04FF448
:1040380000429A60DDE705EBC50204EB8202D2F884
:104048009C121B69C3F31203CB1AC2F890327DB9D4
:1040580005EBC50204EB8202D2F88C226AB105EBAB
:10406800C50204EB8202D2F888121944C2F88812F9
:10407800E9B2204606F024FBBBE704F2C442012162
:1040880005F028F8F4E712F4004F03D04FF400428B
:104098009A60AEE712F0200F01D020229A60E9B2B0
:1040A800204606F00DFBA4E704F2C442002105F007
:1040B80011F89AE70A31544F0A30544F38B504467C
:1040C80003681D6C03EB4113D3F8081B0E4A954295
:1040D80007D903F5306311F4004F02D04FF40042C2
:1040E8009A60204606F0E4FA074B9D4202D9E3683D
:1040F800012B01D0002038BD04F2C4420121206800
:1041080004F0E8FFF6E700BF0A30544F90F8BC34DB
:10411800012B0DD010B50446012380F8BC3480F87B
:104128003810006804F036FF002084F8BC0410BD85
:104138000220704738B505468C4611F0800F29D10A
:1041480001F00F0E0EEBCE04A40004F51E74044417
:10415800211D0EEBCE0E00EB8E0E00208EF87D0298
:104168000CF00F0C81F800C08A600B714A780AB114
:10417800A1F81AC0022B1DD095F8BC34012B1CD015
:10418800012385F8BC34286804F036FC002085F843
:10419800BC0438BD01F00F0000EBC00189003831C4
:1041A8002944043100EBC00005EB8000012480F8AD
:1041B8003D40D5E700234B71DEE70220E9E710B563
:1041C80004460A4611F0800F20D101F00F0000EBE1
:1041D800C0039B0003F51E732344191D00EBC000A8
:1041E80004EB8000002380F87D3202F00F020A7091
:1041F80094F8BC34012B19D0012384F8BC3420680E
:1042080004F046FC002084F8BC0410BD01F00F0047
:1042180000EBC0039B0038332344191D00EBC0009A
:1042280004EB8000012380F83D30DEE70220ECE754
:1042380008B501F00F0C0CEBCC01890001F51E71DB
:10424800014404310CEBCC0E00EB8E0ECEF8882224
:10425800CEF88C320023CEF890328EF87D328EF86C
:104268007CC2C368012B05D0DAB2006804F0F6FC02
:10427800002008BDCEF89822F6E708B501F00F0C2B
:104288000CEBCC0189003831014404310CEBCC0E25
:1042980000EB8E0ECEF84820CEF84C300023CEF836
:1042A800503001238EF83D308EF83CC0C368012B96
:1042B80005D0DAB2006804F0D1FC002008BDCEF8C1
:1042C8005820F6E738B501F00F054268954239D80D
:1042D80004460B4611F0800F1FD101EBC101890084
:1042E80001F51E710144043103EBC30300EB8303A2
:1042F800002283F87D2201238B700D7094F8BC3462
:10430800012B21D0012384F8BC34206804F0E7FD98
:104318008DB1002084F8BC0438BD05EBC5018900C7
:1043280038310144043105EBC50300EB8303012256
:1043380083F83D20DFE704F2C442217B206804F0C3
:10434800C9FEE6E70120E7E70220E5E701F00F03F1
:104358004268934231D810B5044611F0800F1ED13F
:1043680003EBC301890001F51E710144043103EB1D
:10437800C30200EB8202002082F87D0200228A70CC
:104388000B7094F8BC34012B19D0012384F8BC3489
:10439800206804F0D1FD002084F8BC0410BD03EBB4
:1043A800C301890038310144043103EBC30200EB37
:1043B8008202012082F83D00E0E7012070470220D8
:1043C800ECE708B511F0800F0CD101F00F0101EBFB
:1043D800C101890001F51E7101440431006804F02F
:1043E800C7FB08BD01F00F0101EBC101890038319D
:1043F80001440431F2E72DE9F04F83B00446056823
:10440800284604F022FE10B103B0BDE8F08F06463E
:10441800206804F0EBFD0028F6D005F50067BB68BE
:10442800C3F30D23C4F8FC34206804F0DFFD10F05A
:10443800020F04D02268536903F002035361206815
:1044480004F0D4FD10F0100F14D02268936923F003
:1044580010039361D5F8208008F00F09C8F343438F
:10446800022B69D0062B00F08D802268936943F0F7
:1044780010039361206804F0B9FD10F4002F40F098
:104488009380206804F0B2FD10F4802F40F0FC8087
:10449800206804F0ABFD0028C0F27F81206804F09A
:1044A800A5FD10F4006F09D0BB6813F0010F40F0B0
:1044B8008C812268536903F400635361206804F017
:1044C80095FD10F0006F15D02268536903F0006362
:1044D800536194F8F434002B40F07B81012184F877
:1044E800F41423685B6DC3F38303C4F8F8342046DF
:1044F80000F0C2FA206804F079FD10F4805F40F003
:104508006C81206804F072FD10F4005F40F0B881FF
:10451800206804F06BFD10F0080F40F0C981206896
:1045280004F064FD10F0800F00F0DC81AB6923F02B
:104538008003AB610126C5E147F6F07318EA030F63
:1045480093D04FEA181A4FEAC903019309EBC90B34
:1045580004EB8B0BC8F30A12DBF88812284604F028
:104568009BFCDBF88832CAF30A0A5344CBF888323A
:10457800DBF89032019A4A4404EB82025344C2F8B1
:10458800903272E7082204F2C441284604F084FC01
:1045980009EBC90304EB8303D3F89022C8F30A1884
:1045A8004244C3F8902260E7206804F023FD804667
:1045B800B14635E005EB49130122C3F8082B4946FB
:1045C8002046FFF7F9FC3CE005EB49130822C3F845
:1045D800082B49462046FFF771FD35E009EBC90372
:1045E80004EB830393F87F32012B41D005EB491389
:1045F8000222C3F8082B1AF0200F04D005EB491348
:104608002022C3F8082B1AF4005F05D005EB4913E4
:104618004FF40052C3F8082B09F101094FEA580872
:10462800B8F1000F3FF42DAF18F0010FF4D05FFA86
:1046380089FB5946206804F0EDFC824610F0010F12
:10464800B8D11AF0080FBFD11AF0100F04D005EB3B
:1046580049131022C3F8082B1AF0020FCBD06B694C
:1046680013F0800FBAD07B6843F480637B60B5E7B2
:1046780009EBC90304EB8303002283F87F22594620
:10468800204606F06FF8B1E7206804F0BBFC8046CE
:10469800B14625E05946204606F01EF81AF0080FE4
:1046A80004D005EB49130822C3F808291AF0100FA3
:1046B80004D005EB49131022C3F808291AF0400F5B
:1046C80004D005EB49134022C3F808291AF0020F59
:1046D80040D11AF0800F5BD109F101094FEA58085F
:1046E800B8F1000F3FF4D4AE18F0010FF4D05FFA20
:1046F80089FB5946206804F096FC824610F0010FA9
:10470800CCD009F00F02012101FA02F27B6B23EAF7
:1047180002037B6305EB4913C3F80819E3688B426E
:10472800B8D109EBC90304EB83039A6C596C0A44AA
:104738009A64B9F1000FADD109EBC90304EB830307
:10474800DB6C002BA6D104F2C4420121206804F0DE
:10475800C1FC9FE74946284604F024F809EBC90341
:1047680004EB830393F83F30012B05D005EB491385
:104778000222C3F80829ACE709EBC90304EB830359
:10478800002283F83F205946204605F0F1FFEDE767
:1047980049462046FFF7E8FA9EE77B6823F00103C5
:1047A8007B6094F8F434012B08D0204605F0D4FF40
:1047B8002268536903F0004353616FE6002184F8CF
:1047C800F414204600F058F9F2E7204605F0ACFF53
:1047D8006FE6204605F0A8FF8CE67B6823F001030E
:1047E8007B601021206803F0DDFF1AE005EB46131B
:1047F8004FF67F31C3F80819D3F8002922F40012C4
:10480800C3F80029C3F8081BD3F8002B22F40012C0
:10481800C3F8002BD3F8002B42F00062C3F8002B3A
:1048280001366368B342E1D8FB6943F00113FB61C9
:10483800236BDBB1D7F8843043F00B03C7F884301F
:104848007B6C43F00B037B64D5F8003823F4FE63DC
:10485800C5F8003804F2C442217B206804F03AFC11
:104868002268536903F4805353614AE67A6942F235
:104878002B0313437B613B6943F00B033B61E3E785
:10488800206804F017FC206804F0A6F82061266868
:1048980000F0D6FE0146227C304603F005FF204694
:1048A80005F02BFF2268536903F4005353612FE688
:1048B800204605F01CFF2268536903F00803536182
:1048C8002DE601366368B3420CD906EBC60304EB48
:1048D800830393F87F32012BF3D1F1B22046FFF71F
:1048E80070FDEEE7206804F081FB10F4801F27D1EB
:1048F800206804F07BFB10F4001F5BD0012328E044
:1049080001366368B3421DD905EB4613D3F8002975
:1049180006EBC60304EB830393F84030012BEFD179
:10492800002AEDDA06EBC60304EB8303012283F8C1
:104938003F2066F07F01C9B22046FFF742FDDFE75E
:104948000126DEE72268536903F480135361CFE739
:10495800013362689A4228D905EB4312D2F8001B4A
:1049680003EBC30204EB820292F88022012AEFD102
:104978000029EDDA01F48031D4F8FC2402F00102B8
:104988009142E5D103EBC30204EB8202012182F8D4
:104998007F12AA6942F08002AA616A6912F0800F48
:1049A800D6D17B6843F400737B602268536903F4B3
:1049B80000135361206804F019FB10F0804F10D1E8
:1049C800206804F013FB10F0040F3FF41DAD2368BA
:1049D8005D6815F0040F0DD1226853682B435360AE
:1049E80012E5204605F0CAFE2268536903F08043A9
:1049F8005361E5E7204605F0C7FEEDE710B404680B
:104A0800606A29B940EA0240A062002010BC7047E1
:104A18008C46A36A00EB1340002308E003F1400131
:104A280004EB8101496800EB11400133DBB20CF162
:104A3800FF318B42F2D340EA02400CF13F0104EB14
:104A480081046060E1E70368596200207047000054
:104A5800034602680121C0F80015002083F8F40419
:104A6800936943F000639361516D024B0B435365A7
:104A7800704700BF0300001070470000134BDB684D
:104A880013F0040F07D1114BDB6803F007038342CF
:104A98001AD00120704710B50C4AD36823F00703D9
:104AA8000343D360FCF712FF0446084B5B6813F41A
:104AB800005F07D1FCF70AFF001BB0F57A7FF4D935
:104AC800012000E0002010BD002070470048025877
:104AD800024AD36843F08073D36070470048025895
:104AE800002800F0398338B50446036813F0010F35
:104AF80025D0944A136903F03803926A102B15D015
:104B0800182B0FD06368B3F5803F3FD0002B53D1EB
:104B18008C4B1A6822F480321A601A6822F48022B8
:104B28001A6038E002F00302022AEBD1854B1B68B9
:104B380013F4003F03D06368002B00F00F83236851
:104B480013F0020F00F0A1807E4A1369926A13F0F5
:104B580038035AD0182B55D0E368002B00F0DE80BC
:104B680078490A6822F0190213430B60FCF7AEFE7D
:104B78000546744B1B6813F0040F40F0AD80FCF73A
:104B8800A5FE401B0228F4D90320EEE26D4A136803
:104B980043F48033136063682BB3FCF797FE054634
:104BA800684B1B6813F4003FC9D1FCF78FFE401B0C
:104BB8006428F5D90320D8E2B3F5A02F09D0614BBA
:104BC8001A6822F480321A601A6822F480221A6065
:104BD800E1E75C4B1A6842F480221A601A6842F4D2
:104BE80080321A60D7E7FCF771FE0546554B1B6803
:104BF80013F4003FA3D0FCF769FE401B6428F5D9E5
:104C08000320B2E212F0030FA6D14E4B1B6813F03B
:104C1800040F03D0E368002B00F0A282494A13680E
:104C280023F01903E1680B431360FCF74FFE0546B8
:104C3800444B1B6813F0040F06D1FCF747FE401BDA
:104C48000228F5D9032090E2FCF75AFE41F203034B
:104C5800984212D82269402A07D03A494B6823F46F
:104C68007C3343EA02334B600FE0364A536823F43F
:104C78007C3343F40033536007E0324A536823F02F
:104C8800FE43216943EA01635360236813F0100F60
:104C980000F088802B4A136903F03803926A082BC6
:104CA80056D0182B50D0E369002B00F0B880254A65
:104CB800136843F080031360FCF708FE0546214B98
:104CC8001B6813F4807F40F08880FCF7FFFD401BD1
:104CD8000228F4D9032048E2FCF712FE41F203034C
:104CE800984212D82269402A07D016494B6823F403
:104CF8007C3343EA02334B60C7E7124A536823F414
:104D08007C3343F400335360BFE70E4A536823F003
:104D1800FE43216943EA01635360B6E7094A136811
:104D280023F001031360FCF7D1FD0546054B1B6812
:104D380013F0040FA9D0FCF7C9FD401B0228F5D9D0
:104D4800032012E20044025802F00302012AAAD109
:104D5800A14B1B6813F4807F03D0E369802B40F0DC
:104D68000182FCF7CDFD41F20303984212D8226A72
:104D7800202A07D098494B6823F0F84343EA826316
:104D88004B600FE0944A536823F0F84343F08043A4
:104D9800536007E0904AD36823F07C53216A43EAC2
:104DA8000163D360236813F0080F60D06369002B98
:104DB80049D0894A536F43F001035367FCF786FDD6
:104DC8000546854B5B6F13F0020F50D1FCF77EFD53
:104DD800401B0228F5D90320C7E1FCF791FD41F2F9
:104DE8000303984212D8226A202A07D07A494B68CE
:104DF80023F0F84343EA82634B60D3E7764A53686B
:104E080023F0F84343F080435360CBE7724AD368FA
:104E180023F07C53216A43EA0163D360C2E76E4AF8
:104E2800136823F080031360FCF750FD05466A4BB6
:104E38001B6813F4807FB5D0FCF748FD401B02289F
:104E4800F5D9032091E1644A536F23F001035367B6
:104E5800FCF73CFD0546604B5B6F13F0020F06D074
:104E6800FCF734FD401B0228F5D903207DE12368B7
:104E780013F0200F29D0A3699BB1574A136843F454
:104E880080531360FCF722FD0546534B1B6813F44F
:104E9800005F1AD1FCF71AFD401B0228F5D9032040
:104EA80063E14D4A136823F480531360FCF70EFD49
:104EB8000546494B1B6813F4005F06D0FCF706FD56
:104EC800401B0228F5D903204FE1236813F0040F93
:104ED80021D1636A002B00F047813F4A126902F032
:104EE8003802182A00F0EE80022B79D03A4A13686B
:104EF80023F080731360FCF7E9FC0446364B1B680B
:104F080013F0007F00F0DC80FCF7E0FC001B0228B7
:104F1800F4D9032029E1314A136843F480731360FC
:104F2800FCF7D4FC05462D4B1B6813F4807F06D193
:104F3800FCF7CCFC401B6428F5D9032015E1A368D5
:104F4800012B0AD00BBB244B1A6F22F001021A67FF
:104F58001A6F22F004021A6704E01F4A136F43F025
:104F680001031367A36833B3FCF7B0FC05461A4B7B
:104F78001B6F13F0020FACD1FCF7A8FC401B41F2E9
:104F880088339842F3D90320EFE0052B09D0124B60
:104F98001A6F22F001021A671A6F22F004021A67C8
:104FA800E0E70D4B1A6F42F004021A671A6F42F0DD
:104FB80001021A67D6E7FCF789FC0546064B1B6F0A
:104FC80013F0020F85D0FCF781FC401B41F28833B7
:104FD8009842F3D90320C8E0004402580048025818
:104FE800694A136823F080731360FCF76FFC054669
:104FF800654B1B6813F0007F06D0FCF767FC401B6D
:105008000228F5D90320B0E05F4B996A5F4A0A404D
:10501800A16AE06A41EA00110A439A62226B013AE6
:10502800C2F30802616B0139490289B20A43A16BD4
:105038000139090401F4FE010A43E16B013909064B
:1050480001F0FE410A431A63DA6A22F00102DA62C9
:10505800596B4F4A0A40A16C42EAC1025A63DA6AA4
:1050680022F00C02216C0A43DA62DA6A22F00202A8
:10507800616C0A43DA62DA6A42F48032DA62DA6A26
:1050880042F40032DA62DA6A42F48022DA62DA6AD8
:1050980042F00102DA621A6842F080721A60FCF784
:1050A80015FC0446384B1B6813F0007F06D1FCF74B
:1050B8000DFC001B0228F5D9032056E0002054E01F
:1050C800002052E0304A916A106B012B4ED001F05B
:1050D8000303A26A93424BD1C1F30511E36A9942D3
:1050E80048D1C0F30802236B013B9A4244D1C0F374
:1050F8004622636B013B9A4240D1C0F30642A36B40
:10510800013B9A423CD1C0F30660E36B013B9842F5
:1051180038D11D4B5B6BC3F3CC03A26C9A4201D10F
:10512800002022E0184AD36A23F00103D362FCF777
:10513800CDFB0546FCF7CAFBA842FBD0124A516BCF
:10514800134B0B40A16C43EAC1035363D36A43F08A
:105158000103D362002008E001207047012004E029
:10516800012002E0012000E0002038BD0120FCE71A
:105178000120FAE70120F8E70120F6E70120F4E72B
:105188000120F2E70120F0E7004402580CFCFFFF81
:105198000700FFFFF8B57E4B1B6903F03803102B9F
:1051A80000F0F280182B10D013B17A4C2046F8BDCD
:1051B800774B1B6813F0200F00F0E880744B1B68D6
:1051C800C3F3C103744CDC40F0E7714B9D6A05F0F2
:1051D80003059C6AC4F30514D86A00F001005B6BF0
:1051E800C3F3CC0303FB00F0FBF708F90646002CD9
:1051F800DCD0012D76D0022D00F0A4800DB320461E
:10520800FBF7FCF801466548FBF704FA0446604BD7
:10521800186BC0F30800FBF7F1F805464FF064512E
:105228003046FBF743F901462846FBF737F84FF0BD
:105238007E51FBF733F801462046FBF737F9044661
:1052480071E0534B1B6813F0200F29D0504F3B6877
:10525800C3F3C1035048D840FBF7D0F805462046B1
:10526800FBF7CCF801462846FBF7D4F90446386B1F
:10527800C0F30800FBF7C2F805464FF0645130460A
:10528800FBF714F901462846FBF708F84FF07E5162
:10529800FBF704F801462046FBF708F9044642E00C
:1052A8002046FBF7ABF801463D48FBF7B3F9044647
:1052B800374B186BC0F30800FBF7A0F805464FF012
:1052C80064513046FBF7F2F801462846FAF7E6FF44
:1052D8004FF07E51FAF7E2FF01462046FBF7E6F869
:1052E800044620E02046FBF789F801462B48FBF7E7
:1052F80091F90446264B186BC0F30800FBF77EF8BB
:1053080005464FF064513046FBF7D0F80146284671
:10531800FAF7C4FF4FF07E51FAF7C0FF0146204666
:10532800FBF7C4F804461A4B1B6BC3F34623581CFF
:10533800FBF764F801462046FBF76CF9FBF706FA21
:10534800044633E72046FBF759F801461548FBF7B2
:1053580061F904460E4B186BC0F30800FBF74EF8D2
:1053680005464FF064513046FBF7A0F80146284641
:10537800FAF794FF4FF07E51FAF790FF0146204666
:10538800FBF794F80446CEE7074C0FE7024C0DE70D
:105398000044025800093D000090D0030024744ADC
:1053A8000024744C001B374C006CDC02002800F011
:1053B800328170B50D4604469B4B1B6803F00F0302
:1053C8008B420BD2984A136823F00F030B431360E8
:1053D800136803F00F038B4240F01F81236813F01A
:1053E800040F0CD02269914B9B6903F070039A4219
:1053F80005D98E498B6923F070031A438A612368A3
:1054080013F0080F0CD06269884BDB6903F0700356
:105418009A4205D98549CB6923F070031A43CA61BA
:10542800236813F0100F0CD0A269804BDB6903F4DA
:10543800E0639A4205D97D49CB6923F4E0631A43B6
:10544800CA61236813F0200F0CD0E269774B1B6AFE
:1054580003F070039A4205D974490B6A23F070036C
:105468001A430A62236813F0020F0CD0E2686F4BEC
:105478009B6903F00F039A4205D96C498B6923F0A5
:105488000F031A438A61236813F0010F41D0674A5A
:10549800936923F47063A1680B4393616368022BDB
:1054A8000AD0032B27D0012B2CD0604A126812F0A7
:1054B800040F06D10120ADE0126812F4003F00F09D
:1054C800AE805A490A6922F0070213430B61FCF7C0
:1054D800FDF90646554B1B6903F038036268B3EBC8
:1054E800C20F16D0FCF7F2F9801B41F288339842BC
:1054F800F0D903208EE04D4A126812F0007FE0D107
:10550800012087E0494A126812F4807FD9D101202E
:1055180080E0236813F0020F0CD0E268434B9B69CC
:1055280003F00F039A4205D240498B6923F00F0319
:105538001A438A613C4B1B6803F00F03AB420AD93C
:10554800394A136823F00F032B431360136803F0E1
:105558000F03AB4265D1236813F0040F0CD0226906
:10556800324B9B6903F070039A4205D22F498B692D
:1055780023F070031A438A61236813F0080F0CD0D4
:1055880062692A4BDB6903F070039A4205D2274906
:10559800CB6923F070031A43CA61236813F0100F14
:1055A8000CD0A269214BDB6903F4E0639A4205D26F
:1055B8001E49CB6923F4E0631A43CA61236813F0D8
:1055C800200F0CD0E269194B1B6A03F070039A4252
:1055D80005D216490B6A23F070031A430A62FFF7D3
:1055E800D9FD12498B69C3F30323114AD35C03F035
:1055F8001F03D8408B6903F00F03D35C03F01F032C
:1056080020FA03F30B4A13600B4B18600B4B186816
:10561800FCF7FAF870BD012070470120FAE7012075
:10562800F8E70120F6E700BF0020005200440258C6
:1056380064BF000800000020040000200C000020C7
:1056480008B5FFF7A7FD0B4A9369C3F303230A497B
:10565800CB5C03F01F0320FA03F3926902F00F02F8
:10566800885C00F01F0023FA00F0044A1060044A26
:10567800136008BD0044025864BF00080000002001
:105688000400002008B5FFF7DBFF054BDB69C3F317
:105698000213044AD35C03F01F03D84008BD00BFBF
:1056A8000044025864BF000808B5FFF7C9FF054B5E
:1056B800DB69C3F30223044AD35C03F01F03D84019
:1056C80008BD00BF0044025864BF0008404B9B6AF5
:1056D80003F00303032B79D070B505460E463C4A08
:1056E800136823F080631360FCF7F0F80446384B26
:1056F8001B6813F0006F06D0FCF7E8F8031B022BB9
:10570800F5D9032070BD324B9A6A22F47C3229689D
:1057180042EA01329A626A68013AC2F30802A96849
:105728000139490289B20A43E9680139090401F4D7
:10573800FE010A4329690139090601F0FE410A43BD
:105748009A63DA6A22F0C00269690A43DA62DA6A9D
:1057580022F02002A9690A43DA62DA6A22F010020A
:10576800DA62D96B1B4A0A40E96942EAC102DA6384
:10577800DA6A42F01002DA62C6B91A46DB6A43F402
:105788000023D362124A136843F080631360FCF766
:105798009DF804460E4B1B6813F0006F14D1FCF7FC
:1057A80095F8001B0228F5D90320ABE7012E05D098
:1057B800074AD36A43F40013D362E3E7044AD36A7F
:1057C80043F48013D362DDE700209BE70120704794
:1057D800004402580700FFFF404B9B6A03F0030395
:1057E800032B79D070B505460E463C4A136823F062
:1057F80080531360FCF76AF80446384B1B6813F0B3
:10580800005F06D0FCF762F8031B022BF5D90320D2
:1058180070BD324B9A6A22F07C72296842EA0152C2
:105828009A626A68013AC2F30802A9680139490212
:1058380089B20A43E9680139090401F4FE010A43FF
:1058480029690139090601F0FE410A431A64DA6A36
:1058580022F4406269690A43DA62DA6A22F4007261
:10586800A9690A43DA62DA6A22F48072DA62596C48
:105878001B4A0A40E96942EAC1025A64DA6A42F4F8
:105888008072DA62C6B91A46DB6A43F48003D362CF
:10589800124A136843F080531360FCF717F8044664
:1058A8000E4B1B6813F0005F14D1FCF70FF8001BB8
:1058B8000228F5D90320ABE7012E05D0074AD36AA1
:1058C80043F08073D362E3E7044AD36A43F40003E6
:1058D800D362DDE700209BE70120704700440258AF
:1058E8000700FFFFF8B50446036813F0006F30D0D7
:1058F800836EB3F5001F26D00ED8EBB1B3F5801F29
:1059080007D102210830FFF7E1FE054645B12E46D2
:1059180021E0012635461EE0B3F5401F09D10025D8
:10592800984A136D23F44013A16E0B4313650026A8
:1059380011E0012635460EE0924AD36A43F400335B
:10594800D3620025ECE702212830FFF745FF054622
:10595800DCE700263546236813F4807F14D0A36D56
:10596800042B32D8DFE803F003232A080800854A0D
:10597800D36A43F40033D36255BB824A136D23F0D4
:105988000703A16D0B431365236813F4007F31D01F
:10599800E36D802B4CD020D8002B43D0402B19D15D
:1059A800002104F10800FFF791FE05461AE00021E6
:1059B80004F10800FFF78AFE0546DDE7002104F13F
:1059C8002800FFF709FF0546D6E701263546DBE73D
:1059D8002E46D9E7012635460CE0C02B02D0B3F598
:1059E800807F1CD15DBB674A136D23F4E073E16DC2
:1059F8000B431365236813F4806F46D0D4F8A8309E
:105A0800B3F5800F39D01FD88BB3B3F5001F18D169
:105A1800002104F10800FFF759FE05461AE00126A7
:105A28003546E7E7574AD36A43F40033D362D9E7E8
:105A3800002104F12800FFF7CFFE0546D2E72E46E5
:105A4800D8E70126354620E0B3F5C00F02D0B3F5FC
:105A5800000F09D1C5B94B4A936D23F46003D4F8FC
:105A6800A8100B43936510E0012635460DE0454A22
:105A7800D36A43F40033D362ECE7002104F1280031
:105A8800FFF7AAFE0546E5E72E46236813F4006FE4
:105A980024D0D4F8AC30B3F1007F42D00ED8002B1C
:105AA80039D0B3F1807F06D1002104F10800FFF757
:105AB8000DFE054608E0012635460FE0B3F1407FAC
:105AC80002D0B3F1806F23D1002D31D12D4A936DCF
